{
  "_format": "hh-sol-artifact-1",
  "contractName": "PredictionMarket",
  "sourceName": "contracts/PredictionMarket.sol",
  "abi": [
    {
      "inputs": [
        {
          "internalType": "address",
          "name": "_usdcAddress",
          "type": "address"
        },
        {
          "internalType": "string",
          "name": "_question",
          "type": "string"
        },
        {
          "internalType": "enum PredictionMarket.Category",
          "name": "_category",
          "type": "uint8"
        },
        {
          "internalType": "address",
          "name": "initialOwner",
          "type": "address"
        }
      ],
      "stateMutability": "nonpayable",
      "type": "constructor"
    },
    {
      "inputs": [
        {
          "internalType": "address",
          "name": "spender",
          "type": "address"
        },
        {
          "internalType": "uint256",
          "name": "allowance",
          "type": "uint256"
        },
        {
          "internalType": "uint256",
          "name": "needed",
          "type": "uint256"
        }
      ],
      "name": "ERC20InsufficientAllowance",
      "type": "error"
    },
    {
      "inputs": [
        {
          "internalType": "address",
          "name": "sender",
          "type": "address"
        },
        {
          "internalType": "uint256",
          "name": "balance",
          "type": "uint256"
        },
        {
          "internalType": "uint256",
          "name": "needed",
          "type": "uint256"
        }
      ],
      "name": "ERC20InsufficientBalance",
      "type": "error"
    },
    {
      "inputs": [
        {
          "internalType": "address",
          "name": "approver",
          "type": "address"
        }
      ],
      "name": "ERC20InvalidApprover",
      "type": "error"
    },
    {
      "inputs": [
        {
          "internalType": "address",
          "name": "receiver",
          "type": "address"
        }
      ],
      "name": "ERC20InvalidReceiver",
      "type": "error"
    },
    {
      "inputs": [
        {
          "internalType": "address",
          "name": "sender",
          "type": "address"
        }
      ],
      "name": "ERC20InvalidSender",
      "type": "error"
    },
    {
      "inputs": [
        {
          "internalType": "address",
          "name": "spender",
          "type": "address"
        }
      ],
      "name": "ERC20InvalidSpender",
      "type": "error"
    },
    {
      "inputs": [
        {
          "internalType": "address",
          "name": "owner",
          "type": "address"
        }
      ],
      "name": "OwnableInvalidOwner",
      "type": "error"
    },
    {
      "inputs": [
        {
          "internalType": "address",
          "name": "account",
          "type": "address"
        }
      ],
      "name": "OwnableUnauthorizedAccount",
      "type": "error"
    },
    {
      "anonymous": false,
      "inputs": [
        {
          "indexed": true,
          "internalType": "address",
          "name": "owner",
          "type": "address"
        },
        {
          "indexed": true,
          "internalType": "address",
          "name": "spender",
          "type": "address"
        },
        {
          "indexed": false,
          "internalType": "uint256",
          "name": "value",
          "type": "uint256"
        }
      ],
      "name": "Approval",
      "type": "event"
    },
    {
      "anonymous": false,
      "inputs": [
        {
          "indexed": true,
          "internalType": "address",
          "name": "user",
          "type": "address"
        },
        {
          "indexed": false,
          "internalType": "uint256",
          "name": "yesAmount",
          "type": "uint256"
        },
        {
          "indexed": false,
          "internalType": "uint256",
          "name": "noAmount",
          "type": "uint256"
        },
        {
          "indexed": false,
          "internalType": "enum PredictionMarket.Category",
          "name": "category",
          "type": "uint8"
        }
      ],
      "name": "BetPlaced",
      "type": "event"
    },
    {
      "anonymous": false,
      "inputs": [
        {
          "indexed": false,
          "internalType": "uint256",
          "name": "outcome",
          "type": "uint256"
        }
      ],
      "name": "MarketResolved",
      "type": "event"
    },
    {
      "anonymous": false,
      "inputs": [
        {
          "indexed": true,
          "internalType": "address",
          "name": "previousOwner",
          "type": "address"
        },
        {
          "indexed": true,
          "internalType": "address",
          "name": "newOwner",
          "type": "address"
        }
      ],
      "name": "OwnershipTransferred",
      "type": "event"
    },
    {
      "anonymous": false,
      "inputs": [
        {
          "indexed": true,
          "internalType": "address",
          "name": "from",
          "type": "address"
        },
        {
          "indexed": true,
          "internalType": "address",
          "name": "to",
          "type": "address"
        },
        {
          "indexed": false,
          "internalType": "uint256",
          "name": "value",
          "type": "uint256"
        }
      ],
      "name": "Transfer",
      "type": "event"
    },
    {
      "inputs": [],
      "name": "CFMM_K",
      "outputs": [
        {
          "internalType": "uint256",
          "name": "",
          "type": "uint256"
        }
      ],
      "stateMutability": "view",
      "type": "function"
    },
    {
      "inputs": [],
      "name": "USDC",
      "outputs": [
        {
          "internalType": "contract ERC20",
          "name": "",
          "type": "address"
        }
      ],
      "stateMutability": "view",
      "type": "function"
    },
    {
      "inputs": [
        {
          "internalType": "address",
          "name": "owner",
          "type": "address"
        },
        {
          "internalType": "address",
          "name": "spender",
          "type": "address"
        }
      ],
      "name": "allowance",
      "outputs": [
        {
          "internalType": "uint256",
          "name": "",
          "type": "uint256"
        }
      ],
      "stateMutability": "view",
      "type": "function"
    },
    {
      "inputs": [
        {
          "internalType": "address",
          "name": "spender",
          "type": "address"
        },
        {
          "internalType": "uint256",
          "name": "value",
          "type": "uint256"
        }
      ],
      "name": "approve",
      "outputs": [
        {
          "internalType": "bool",
          "name": "",
          "type": "bool"
        }
      ],
      "stateMutability": "nonpayable",
      "type": "function"
    },
    {
      "inputs": [
        {
          "internalType": "address",
          "name": "account",
          "type": "address"
        }
      ],
      "name": "balanceOf",
      "outputs": [
        {
          "internalType": "uint256",
          "name": "",
          "type": "uint256"
        }
      ],
      "stateMutability": "view",
      "type": "function"
    },
    {
      "inputs": [],
      "name": "claimWinnings",
      "outputs": [],
      "stateMutability": "nonpayable",
      "type": "function"
    },
    {
      "inputs": [],
      "name": "decimals",
      "outputs": [
        {
          "internalType": "uint8",
          "name": "",
          "type": "uint8"
        }
      ],
      "stateMutability": "view",
      "type": "function"
    },
    {
      "inputs": [],
      "name": "getProbability",
      "outputs": [
        {
          "internalType": "uint256",
          "name": "yesProbability",
          "type": "uint256"
        },
        {
          "internalType": "uint256",
          "name": "noProbability",
          "type": "uint256"
        }
      ],
      "stateMutability": "view",
      "type": "function"
    },
    {
      "inputs": [
        {
          "internalType": "uint256",
          "name": "initialLiquidityUSDC",
          "type": "uint256"
        }
      ],
      "name": "initializeMarket",
      "outputs": [],
      "stateMutability": "nonpayable",
      "type": "function"
    },
    {
      "inputs": [],
      "name": "marketCategory",
      "outputs": [
        {
          "internalType": "enum PredictionMarket.Category",
          "name": "",
          "type": "uint8"
        }
      ],
      "stateMutability": "view",
      "type": "function"
    },
    {
      "inputs": [],
      "name": "name",
      "outputs": [
        {
          "internalType": "string",
          "name": "",
          "type": "string"
        }
      ],
      "stateMutability": "view",
      "type": "function"
    },
    {
      "inputs": [],
      "name": "noPool",
      "outputs": [
        {
          "internalType": "uint256",
          "name": "",
          "type": "uint256"
        }
      ],
      "stateMutability": "view",
      "type": "function"
    },
    {
      "inputs": [],
      "name": "noToken",
      "outputs": [
        {
          "internalType": "contract MintableERC20",
          "name": "",
          "type": "address"
        }
      ],
      "stateMutability": "view",
      "type": "function"
    },
    {
      "inputs": [],
      "name": "owner",
      "outputs": [
        {
          "internalType": "address",
          "name": "",
          "type": "address"
        }
      ],
      "stateMutability": "view",
      "type": "function"
    },
    {
      "inputs": [
        {
          "internalType": "uint256",
          "name": "usdcAmount",
          "type": "uint256"
        },
        {
          "internalType": "bool",
          "name": "betOnYes",
          "type": "bool"
        }
      ],
      "name": "placeBet",
      "outputs": [],
      "stateMutability": "nonpayable",
      "type": "function"
    },
    {
      "inputs": [],
      "name": "renounceOwnership",
      "outputs": [],
      "stateMutability": "nonpayable",
      "type": "function"
    },
    {
      "inputs": [
        {
          "internalType": "uint256",
          "name": "outcome",
          "type": "uint256"
        }
      ],
      "name": "resolve",
      "outputs": [],
      "stateMutability": "nonpayable",
      "type": "function"
    },
    {
      "inputs": [],
      "name": "resolved",
      "outputs": [
        {
          "internalType": "bool",
          "name": "",
          "type": "bool"
        }
      ],
      "stateMutability": "view",
      "type": "function"
    },
    {
      "inputs": [],
      "name": "symbol",
      "outputs": [
        {
          "internalType": "string",
          "name": "",
          "type": "string"
        }
      ],
      "stateMutability": "view",
      "type": "function"
    },
    {
      "inputs": [],
      "name": "totalSupply",
      "outputs": [
        {
          "internalType": "uint256",
          "name": "",
          "type": "uint256"
        }
      ],
      "stateMutability": "view",
      "type": "function"
    },
    {
      "inputs": [
        {
          "internalType": "address",
          "name": "to",
          "type": "address"
        },
        {
          "internalType": "uint256",
          "name": "value",
          "type": "uint256"
        }
      ],
      "name": "transfer",
      "outputs": [
        {
          "internalType": "bool",
          "name": "",
          "type": "bool"
        }
      ],
      "stateMutability": "nonpayable",
      "type": "function"
    },
    {
      "inputs": [
        {
          "internalType": "address",
          "name": "from",
          "type": "address"
        },
        {
          "internalType": "address",
          "name": "to",
          "type": "address"
        },
        {
          "internalType": "uint256",
          "name": "value",
          "type": "uint256"
        }
      ],
      "name": "transferFrom",
      "outputs": [
        {
          "internalType": "bool",
          "name": "",
          "type": "bool"
        }
      ],
      "stateMutability": "nonpayable",
      "type": "function"
    },
    {
      "inputs": [
        {
          "internalType": "address",
          "name": "newOwner",
          "type": "address"
        }
      ],
      "name": "transferOwnership",
      "outputs": [],
      "stateMutability": "nonpayable",
      "type": "function"
    },
    {
      "inputs": [],
      "name": "winningOutcome",
      "outputs": [
        {
          "internalType": "uint256",
          "name": "",
          "type": "uint256"
        }
      ],
      "stateMutability": "view",
      "type": "function"
    },
    {
      "inputs": [],
      "name": "yesPool",
      "outputs": [
        {
          "internalType": "uint256",
          "name": "",
          "type": "uint256"
        }
      ],
      "stateMutability": "view",
      "type": "function"
    },
    {
      "inputs": [],
      "name": "yesToken",
      "outputs": [
        {
          "internalType": "contract MintableERC20",
          "name": "",
          "type": "address"
        }
      ],
      "stateMutability": "view",
      "type": "function"
    }
  ],
  "bytecode": "0x60e06040523480156200001157600080fd5b5060405162004de738038062004de78339818101604052810190620000379190620005b0565b80836040518060400160405280600281526020017f504d00000000000000000000000000000000000000000000000000000000000081525081600390816200008091906200088c565b5080600490816200009291906200088c565b505050600073ffffffffffffffffffffffffffffffffffffffff168173ffffffffffffffffffffffffffffffffffffffff16036200010a5760006040517f1e4fbdf700000000000000000000000000000000000000000000000000000000815260040162000101919062000984565b60405180910390fd5b6200011b81620002bc60201b60201c565b508373ffffffffffffffffffffffffffffffffffffffff1660808173ffffffffffffffffffffffffffffffffffffffff16815250508260405160200162000163919062000a09565b604051602081830303815290604052604051620001809062000382565b6200018c919062000ad5565b604051809103906000f080158015620001a9573d6000803e3d6000fd5b5073ffffffffffffffffffffffffffffffffffffffff1660a08173ffffffffffffffffffffffffffffffffffffffff168152505082604051602001620001f0919062000b34565b6040516020818303038152906040526040516200020d9062000382565b62000219919062000bae565b604051809103906000f08015801562000236573d6000803e3d6000fd5b5073ffffffffffffffffffffffffffffffffffffffff1660c08173ffffffffffffffffffffffffffffffffffffffff168152505081600860006101000a81548160ff0219169083600281111562000292576200029162000be7565b5b02179055506000600860016101000a81548160ff0219169083151502179055505050505062000c16565b6000600560009054906101000a900473ffffffffffffffffffffffffffffffffffffffff16905081600560006101000a81548173ffffffffffffffffffffffffffffffffffffffff021916908373ffffffffffffffffffffffffffffffffffffffff1602179055508173ffffffffffffffffffffffffffffffffffffffff168173ffffffffffffffffffffffffffffffffffffffff167f8be0079c531659141344cd1fd0a4f28419497f9722a3daafe3b4186f6b6457e060405160405180910390a35050565b61180d80620035da83390190565b6000604051905090565b600080fd5b600080fd5b600073ffffffffffffffffffffffffffffffffffffffff82169050919050565b6000620003d182620003a4565b9050919050565b620003e381620003c4565b8114620003ef57600080fd5b50565b6000815190506200040381620003d8565b92915050565b600080fd5b600080fd5b6000601f19601f8301169050919050565b7f4e487b7100000000000000000000000000000000000000000000000000000000600052604160045260246000fd5b6200045e8262000413565b810181811067ffffffffffffffff8211171562000480576200047f62000424565b5b80604052505050565b60006200049562000390565b9050620004a3828262000453565b919050565b600067ffffffffffffffff821115620004c657620004c562000424565b5b620004d18262000413565b9050602081019050919050565b60005b83811015620004fe578082015181840152602081019050620004e1565b60008484015250505050565b6000620005216200051b84620004a8565b62000489565b90508281526020810184848401111562000540576200053f6200040e565b5b6200054d848285620004de565b509392505050565b600082601f8301126200056d576200056c62000409565b5b81516200057f8482602086016200050a565b91505092915050565b600381106200059657600080fd5b50565b600081519050620005aa8162000588565b92915050565b60008060008060808587031215620005cd57620005cc6200039a565b5b6000620005dd87828801620003f2565b945050602085015167ffffffffffffffff8111156200060157620006006200039f565b5b6200060f8782880162000555565b9350506040620006228782880162000599565b92505060606200063587828801620003f2565b91505092959194509250565b600081519050919050565b7f4e487b7100000000000000000000000000000000000000000000000000000000600052602260045260246000fd5b600060028204905060018216806200069457607f821691505b602082108103620006aa57620006a96200064c565b5b50919050565b60008190508160005260206000209050919050565b60006020601f8301049050919050565b600082821b905092915050565b600060088302620007147fffffffffffffffffffffffffffffffffffffffffffffffffffffffffffffffff82620006d5565b620007208683620006d5565b95508019841693508086168417925050509392505050565b6000819050919050565b6000819050919050565b60006200076d62000767620007618462000738565b62000742565b62000738565b9050919050565b6000819050919050565b62000789836200074c565b620007a1620007988262000774565b848454620006e2565b825550505050565b600090565b620007b8620007a9565b620007c58184846200077e565b505050565b5b81811015620007ed57620007e1600082620007ae565b600181019050620007cb565b5050565b601f8211156200083c576200080681620006b0565b6200081184620006c5565b8101602085101562000821578190505b620008396200083085620006c5565b830182620007ca565b50505b505050565b600082821c905092915050565b6000620008616000198460080262000841565b1980831691505092915050565b60006200087c83836200084e565b9150826002028217905092915050565b620008978262000641565b67ffffffffffffffff811115620008b357620008b262000424565b5b620008bf82546200067b565b620008cc828285620007f1565b600060209050601f831160018114620009045760008415620008ef578287015190505b620008fb85826200086e565b8655506200096b565b601f1984166200091486620006b0565b60005b828110156200093e5784890151825560018201915060208501945060208101905062000917565b868310156200095e57848901516200095a601f8916826200084e565b8355505b6001600288020188555050505b505050505050565b6200097e81620003c4565b82525050565b60006020820190506200099b600083018462000973565b92915050565b600081905092915050565b6000620009b98262000641565b620009c58185620009a1565b9350620009d7818560208601620004de565b80840191505092915050565b7f2059657300000000000000000000000000000000000000000000000000000000815250565b600062000a178284620009ac565b915062000a2482620009e3565b60048201915081905092915050565b600082825260208201905092915050565b600062000a518262000641565b62000a5d818562000a33565b935062000a6f818560208601620004de565b62000a7a8162000413565b840191505092915050565b7f5945530000000000000000000000000000000000000000000000000000000000600082015250565b600062000abd60038362000a33565b915062000aca8262000a85565b602082019050919050565b6000604082019050818103600083015262000af1818462000a44565b9050818103602083015262000b068162000aae565b905092915050565b7f204e6f0000000000000000000000000000000000000000000000000000000000815250565b600062000b428284620009ac565b915062000b4f8262000b0e565b60038201915081905092915050565b7f4e4f000000000000000000000000000000000000000000000000000000000000600082015250565b600062000b9660028362000a33565b915062000ba38262000b5e565b602082019050919050565b6000604082019050818103600083015262000bca818462000a44565b9050818103602083015262000bdf8162000b87565b905092915050565b7f4e487b7100000000000000000000000000000000000000000000000000000000600052602160045260246000fd5b60805160a05160c05161293262000ca8600039600081816105940152818161085b01528181610d8e01528181610e30015281816112f301526113d20152600081816107ce01528181610c8201528181610f3c015281816110e0015281816111bf01526115950152600081816106e501528181610a5f01528181610b950152818161124c015261145f01526129326000f3fe608060405234801561001057600080fd5b506004361061018e5760003560e01c8063715018a6116100de578063a3b5afb111610097578063d3a61a6411610071578063d3a61a6414610442578063dd62ed3e14610460578063f0d9bb2014610490578063f2fde38b146104ae5761018e565b8063a3b5afb1146103ea578063a9059cbb14610408578063b401faf1146104385761018e565b8063715018a61461034c57806389a30271146103565780638da5cb5b1461037457806395d89b41146103925780639b34ae03146103b05780639ed9c74d146103ce5761018e565b8063313ce5671161014b5780634e1f3a00116101255780634e1f3a00146102c65780634f896d4f146102e25780636f1d4ea4146102fe57806370a082311461031c5761018e565b8063313ce5671461026b5780633f6fa6551461028957806345993c66146102a75761018e565b806306fdde0314610193578063095ea7b3146101b15780630ea67860146101e157806311a9f10a146101ff57806318160ddd1461021d57806323b872dd1461023b575b600080fd5b61019b6104ca565b6040516101a89190611db9565b60405180910390f35b6101cb60048036038101906101c69190611e74565b61055c565b6040516101d89190611ecf565b60405180910390f35b6101e961057f565b6040516101f69190611f61565b60405180910390f35b610207610592565b6040516102149190611fdb565b60405180910390f35b6102256105b6565b6040516102329190612005565b60405180910390f35b61025560048036038101906102509190612020565b6105c0565b6040516102629190611ecf565b60405180910390f35b6102736105ef565b604051610280919061208f565b60405180910390f35b6102916105f8565b60405161029e9190611ecf565b60405180910390f35b6102af61060b565b6040516102bd9291906120aa565b60405180910390f35b6102e060048036038101906102db91906120d3565b610688565b005b6102fc60048036038101906102f791906120d3565b6108f9565b005b6103066109fb565b6040516103139190612005565b60405180910390f35b61033660048036038101906103319190612100565b610a01565b6040516103439190612005565b60405180910390f35b610354610a49565b005b61035e610a5d565b60405161036b919061214e565b60405180910390f35b61037c610a81565b6040516103899190612178565b60405180910390f35b61039a610aab565b6040516103a79190611db9565b60405180910390f35b6103b8610b3d565b6040516103c59190612005565b60405180910390f35b6103e860048036038101906103e391906121bf565b610b43565b005b6103f261105a565b6040516103ff9190612005565b60405180910390f35b610422600480360381019061041d9190611e74565b611060565b60405161042f9190611ecf565b60405180910390f35b610440611083565b005b61044a611500565b6040516104579190612005565b60405180910390f35b61047a600480360381019061047591906121ff565b61150c565b6040516104879190612005565b60405180910390f35b610498611593565b6040516104a59190611fdb565b60405180910390f35b6104c860048036038101906104c39190612100565b6115b7565b005b6060600380546104d99061226e565b80601f01602080910402602001604051908101604052809291908181526020018280546105059061226e565b80156105525780601f1061052757610100808354040283529160200191610552565b820191906000526020600020905b81548152906001019060200180831161053557829003601f168201915b5050505050905090565b60008061056761163d565b9050610574818585611645565b600191505092915050565b600860009054906101000a900460ff1681565b7f000000000000000000000000000000000000000000000000000000000000000081565b6000600254905090565b6000806105cb61163d565b90506105d8858285611657565b6105e38585856116ec565b60019150509392505050565b60006012905090565b600860019054906101000a900460ff1681565b600080600060065414801561062257506000600754145b15610634576113888091509150610684565b600060075460065461064691906122ce565b9050806127106006546106599190612302565b6106639190612373565b9250806127106007546106769190612302565b6106809190612373565b9150505b9091565b6106906117e0565b60006006541480156106a457506000600754145b6106e3576040517f08c379a00000000000000000000000000000000000000000000000000000000081526004016106da906123f0565b60405180910390fd5b7f000000000000000000000000000000000000000000000000000000000000000073ffffffffffffffffffffffffffffffffffffffff166323b872dd3330846040518463ffffffff1660e01b815260040161074093929190612410565b6020604051808303816000875af115801561075f573d6000803e3d6000fd5b505050506040513d601f19601f82011682018060405250810190610783919061245c565b6107c2576040517f08c379a00000000000000000000000000000000000000000000000000000000081526004016107b9906124d5565b60405180910390fd5b600081905060008290507f000000000000000000000000000000000000000000000000000000000000000073ffffffffffffffffffffffffffffffffffffffff166340c10f1930846040518363ffffffff1660e01b81526004016108279291906124f5565b600060405180830381600087803b15801561084157600080fd5b505af1158015610855573d6000803e3d6000fd5b505050507f000000000000000000000000000000000000000000000000000000000000000073ffffffffffffffffffffffffffffffffffffffff166340c10f1930836040518363ffffffff1660e01b81526004016108b49291906124f5565b600060405180830381600087803b1580156108ce57600080fd5b505af11580156108e2573d6000803e3d6000fd5b505050508160068190555080600781905550505050565b6109016117e0565b600860019054906101000a900460ff1615610951576040517f08c379a00000000000000000000000000000000000000000000000000000000081526004016109489061256a565b60405180910390fd5b60008114806109605750600181145b61099f576040517f08c379a0000000000000000000000000000000000000000000000000000000008152600401610996906125fc565b60405180910390fd5b6001600860016101000a81548160ff021916908315150217905550806009819055507f93608ecbcf057462da63f5aef413ce7f78c5e1b3bb51859d77a40845ece2bfc3816040516109f09190612005565b60405180910390a150565b60065481565b60008060008373ffffffffffffffffffffffffffffffffffffffff1673ffffffffffffffffffffffffffffffffffffffff168152602001908152602001600020549050919050565b610a516117e0565b610a5b6000611867565b565b7f000000000000000000000000000000000000000000000000000000000000000081565b6000600560009054906101000a900473ffffffffffffffffffffffffffffffffffffffff16905090565b606060048054610aba9061226e565b80601f0160208091040260200160405190810160405280929190818152602001828054610ae69061226e565b8015610b335780601f10610b0857610100808354040283529160200191610b33565b820191906000526020600020905b815481529060010190602001808311610b1657829003601f168201915b5050505050905090565b60095481565b600860019054906101000a900460ff1615610b93576040517f08c379a0000000000000000000000000000000000000000000000000000000008152600401610b8a9061256a565b60405180910390fd5b7f000000000000000000000000000000000000000000000000000000000000000073ffffffffffffffffffffffffffffffffffffffff166323b872dd3330856040518463ffffffff1660e01b8152600401610bf093929190612410565b6020604051808303816000875af1158015610c0f573d6000803e3d6000fd5b505050506040513d601f19601f82011682018060405250810190610c33919061245c565b610c72576040517f08c379a0000000000000000000000000000000000000000000000000000000008152600401610c69906124d5565b60405180910390fd5b60008290506000808315610e2e577f000000000000000000000000000000000000000000000000000000000000000073ffffffffffffffffffffffffffffffffffffffff166340c10f1933856040518363ffffffff1660e01b8152600401610cdb9291906124f5565b600060405180830381600087803b158015610cf557600080fd5b505af1158015610d09573d6000803e3d6000fd5b50505050600083600654610d1d91906122ce565b90506000816703782dace9d90000610d359190612373565b905080600754610d45919061261c565b9350600754841115610d8c576040517f08c379a0000000000000000000000000000000000000000000000000000000008152600401610d83906126c2565b60405180910390fd5b7f000000000000000000000000000000000000000000000000000000000000000073ffffffffffffffffffffffffffffffffffffffff16639dc29fac30866040518363ffffffff1660e01b8152600401610de79291906124f5565b600060405180830381600087803b158015610e0157600080fd5b505af1158015610e15573d6000803e3d6000fd5b5050505080600781905550816006819055505050610fd8565b7f000000000000000000000000000000000000000000000000000000000000000073ffffffffffffffffffffffffffffffffffffffff166340c10f1933856040518363ffffffff1660e01b8152600401610e899291906124f5565b600060405180830381600087803b158015610ea357600080fd5b505af1158015610eb7573d6000803e3d6000fd5b50505050600083600754610ecb91906122ce565b90506000816703782dace9d90000610ee39190612373565b905080600654610ef3919061261c565b9250600654831115610f3a576040517f08c379a0000000000000000000000000000000000000000000000000000000008152600401610f3190612754565b60405180910390fd5b7f000000000000000000000000000000000000000000000000000000000000000073ffffffffffffffffffffffffffffffffffffffff16639dc29fac30856040518363ffffffff1660e01b8152600401610f959291906124f5565b600060405180830381600087803b158015610faf57600080fd5b505af1158015610fc3573d6000803e3d6000fd5b50505050806006819055508160078190555050505b3373ffffffffffffffffffffffffffffffffffffffff167fe8bcec081119392599b60e1206c80b5ce85381e4a7371cc28ec1050e936811898561101c57600061101e565b845b86611029578561102c565b60005b600860009054906101000a900460ff1660405161104b93929190612774565b60405180910390a25050505050565b60075481565b60008061106b61163d565b90506110788185856116ec565b600191505092915050565b600860019054906101000a900460ff166110d2576040517f08c379a00000000000000000000000000000000000000000000000000000000081526004016110c9906127f7565b60405180910390fd5b6001600954036112ef5760007f000000000000000000000000000000000000000000000000000000000000000073ffffffffffffffffffffffffffffffffffffffff166370a08231336040518263ffffffff1660e01b81526004016111379190612178565b602060405180830381865afa158015611154573d6000803e3d6000fd5b505050506040513d601f19601f82011682018060405250810190611178919061282c565b9050600081116111bd576040517f08c379a00000000000000000000000000000000000000000000000000000000081526004016111b4906128a5565b60405180910390fd5b7f000000000000000000000000000000000000000000000000000000000000000073ffffffffffffffffffffffffffffffffffffffff16639dc29fac33836040518363ffffffff1660e01b81526004016112189291906124f5565b600060405180830381600087803b15801561123257600080fd5b505af1158015611246573d6000803e3d6000fd5b505050507f000000000000000000000000000000000000000000000000000000000000000073ffffffffffffffffffffffffffffffffffffffff1663a9059cbb33836040518363ffffffff1660e01b81526004016112a59291906124f5565b6020604051808303816000875af11580156112c4573d6000803e3d6000fd5b505050506040513d601f19601f820116820180604052508101906112e8919061245c565b50506114fe565b60007f000000000000000000000000000000000000000000000000000000000000000073ffffffffffffffffffffffffffffffffffffffff166370a08231336040518263ffffffff1660e01b815260040161134a9190612178565b602060405180830381865afa158015611367573d6000803e3d6000fd5b505050506040513d601f19601f8201168201806040525081019061138b919061282c565b9050600081116113d0576040517f08c379a00000000000000000000000000000000000000000000000000000000081526004016113c7906128a5565b60405180910390fd5b7f000000000000000000000000000000000000000000000000000000000000000073ffffffffffffffffffffffffffffffffffffffff16639dc29fac33836040518363ffffffff1660e01b815260040161142b9291906124f5565b600060405180830381600087803b15801561144557600080fd5b505af1158015611459573d6000803e3d6000fd5b505050507f000000000000000000000000000000000000000000000000000000000000000073ffffffffffffffffffffffffffffffffffffffff1663a9059cbb33836040518363ffffffff1660e01b81526004016114b89291906124f5565b6020604051808303816000875af11580156114d7573d6000803e3d6000fd5b505050506040513d601f19601f820116820180604052508101906114fb919061245c565b50505b565b6703782dace9d9000081565b6000600160008473ffffffffffffffffffffffffffffffffffffffff1673ffffffffffffffffffffffffffffffffffffffff16815260200190815260200160002060008373ffffffffffffffffffffffffffffffffffffffff1673ffffffffffffffffffffffffffffffffffffffff16815260200190815260200160002054905092915050565b7f000000000000000000000000000000000000000000000000000000000000000081565b6115bf6117e0565b600073ffffffffffffffffffffffffffffffffffffffff168173ffffffffffffffffffffffffffffffffffffffff16036116315760006040517f1e4fbdf70000000000000000000000000000000000000000000000000000000081526004016116289190612178565b60405180910390fd5b61163a81611867565b50565b600033905090565b611652838383600161192d565b505050565b6000611663848461150c565b90507fffffffffffffffffffffffffffffffffffffffffffffffffffffffffffffffff8110156116e657818110156116d6578281836040517ffb8f41b20000000000000000000000000000000000000000000000000000000081526004016116cd939291906128c5565b60405180910390fd5b6116e58484848403600061192d565b5b50505050565b600073ffffffffffffffffffffffffffffffffffffffff168373ffffffffffffffffffffffffffffffffffffffff160361175e5760006040517f96c6fd1e0000000000000000000000000000000000000000000000000000000081526004016117559190612178565b60405180910390fd5b600073ffffffffffffffffffffffffffffffffffffffff168273ffffffffffffffffffffffffffffffffffffffff16036117d05760006040517fec442f050000000000000000000000000000000000000000000000000000000081526004016117c79190612178565b60405180910390fd5b6117db838383611b04565b505050565b6117e861163d565b73ffffffffffffffffffffffffffffffffffffffff16611806610a81565b73ffffffffffffffffffffffffffffffffffffffff16146118655761182961163d565b6040517f118cdaa700000000000000000000000000000000000000000000000000000000815260040161185c9190612178565b60405180910390fd5b565b6000600560009054906101000a900473ffffffffffffffffffffffffffffffffffffffff16905081600560006101000a81548173ffffffffffffffffffffffffffffffffffffffff021916908373ffffffffffffffffffffffffffffffffffffffff1602179055508173ffffffffffffffffffffffffffffffffffffffff168173ffffffffffffffffffffffffffffffffffffffff167f8be0079c531659141344cd1fd0a4f28419497f9722a3daafe3b4186f6b6457e060405160405180910390a35050565b600073ffffffffffffffffffffffffffffffffffffffff168473ffffffffffffffffffffffffffffffffffffffff160361199f5760006040517fe602df050000000000000000000000000000000000000000000000000000000081526004016119969190612178565b60405180910390fd5b600073ffffffffffffffffffffffffffffffffffffffff168373ffffffffffffffffffffffffffffffffffffffff1603611a115760006040517f94280d62000000000000000000000000000000000000000000000000000000008152600401611a089190612178565b60405180910390fd5b81600160008673ffffffffffffffffffffffffffffffffffffffff1673ffffffffffffffffffffffffffffffffffffffff16815260200190815260200160002060008573ffffffffffffffffffffffffffffffffffffffff1673ffffffffffffffffffffffffffffffffffffffff168152602001908152602001600020819055508015611afe578273ffffffffffffffffffffffffffffffffffffffff168473ffffffffffffffffffffffffffffffffffffffff167f8c5be1e5ebec7d5bd14f71427d1e84f3dd0314c0f7b2291e5b200ac8c7c3b92584604051611af59190612005565b60405180910390a35b50505050565b600073ffffffffffffffffffffffffffffffffffffffff168373ffffffffffffffffffffffffffffffffffffffff1603611b56578060026000828254611b4a91906122ce565b92505081905550611c29565b60008060008573ffffffffffffffffffffffffffffffffffffffff1673ffffffffffffffffffffffffffffffffffffffff16815260200190815260200160002054905081811015611be2578381836040517fe450d38c000000000000000000000000000000000000000000000000000000008152600401611bd9939291906128c5565b60405180910390fd5b8181036000808673ffffffffffffffffffffffffffffffffffffffff1673ffffffffffffffffffffffffffffffffffffffff16815260200190815260200160002081905550505b600073ffffffffffffffffffffffffffffffffffffffff168273ffffffffffffffffffffffffffffffffffffffff1603611c725780600260008282540392505081905550611cbf565b806000808473ffffffffffffffffffffffffffffffffffffffff1673ffffffffffffffffffffffffffffffffffffffff168152602001908152602001600020600082825401925050819055505b8173ffffffffffffffffffffffffffffffffffffffff168373ffffffffffffffffffffffffffffffffffffffff167fddf252ad1be2c89b69c2b068fc378daa952ba7f163c4a11628f55a4df523b3ef83604051611d1c9190612005565b60405180910390a3505050565b600081519050919050565b600082825260208201905092915050565b60005b83811015611d63578082015181840152602081019050611d48565b60008484015250505050565b6000601f19601f8301169050919050565b6000611d8b82611d29565b611d958185611d34565b9350611da5818560208601611d45565b611dae81611d6f565b840191505092915050565b60006020820190508181036000830152611dd38184611d80565b905092915050565b600080fd5b600073ffffffffffffffffffffffffffffffffffffffff82169050919050565b6000611e0b82611de0565b9050919050565b611e1b81611e00565b8114611e2657600080fd5b50565b600081359050611e3881611e12565b92915050565b6000819050919050565b611e5181611e3e565b8114611e5c57600080fd5b50565b600081359050611e6e81611e48565b92915050565b60008060408385031215611e8b57611e8a611ddb565b5b6000611e9985828601611e29565b9250506020611eaa85828601611e5f565b9150509250929050565b60008115159050919050565b611ec981611eb4565b82525050565b6000602082019050611ee46000830184611ec0565b92915050565b7f4e487b7100000000000000000000000000000000000000000000000000000000600052602160045260246000fd5b60038110611f2a57611f29611eea565b5b50565b6000819050611f3b82611f19565b919050565b6000611f4b82611f2d565b9050919050565b611f5b81611f40565b82525050565b6000602082019050611f766000830184611f52565b92915050565b6000819050919050565b6000611fa1611f9c611f9784611de0565b611f7c565b611de0565b9050919050565b6000611fb382611f86565b9050919050565b6000611fc582611fa8565b9050919050565b611fd581611fba565b82525050565b6000602082019050611ff06000830184611fcc565b92915050565b611fff81611e3e565b82525050565b600060208201905061201a6000830184611ff6565b92915050565b60008060006060848603121561203957612038611ddb565b5b600061204786828701611e29565b935050602061205886828701611e29565b925050604061206986828701611e5f565b9150509250925092565b600060ff82169050919050565b61208981612073565b82525050565b60006020820190506120a46000830184612080565b92915050565b60006040820190506120bf6000830185611ff6565b6120cc6020830184611ff6565b9392505050565b6000602082840312156120e9576120e8611ddb565b5b60006120f784828501611e5f565b91505092915050565b60006020828403121561211657612115611ddb565b5b600061212484828501611e29565b91505092915050565b600061213882611fa8565b9050919050565b6121488161212d565b82525050565b6000602082019050612163600083018461213f565b92915050565b61217281611e00565b82525050565b600060208201905061218d6000830184612169565b92915050565b61219c81611eb4565b81146121a757600080fd5b50565b6000813590506121b981612193565b92915050565b600080604083850312156121d6576121d5611ddb565b5b60006121e485828601611e5f565b92505060206121f5858286016121aa565b9150509250929050565b6000806040838503121561221657612215611ddb565b5b600061222485828601611e29565b925050602061223585828601611e29565b9150509250929050565b7f4e487b7100000000000000000000000000000000000000000000000000000000600052602260045260246000fd5b6000600282049050600182168061228657607f821691505b6020821081036122995761229861223f565b5b50919050565b7f4e487b7100000000000000000000000000000000000000000000000000000000600052601160045260246000fd5b60006122d982611e3e565b91506122e483611e3e565b92508282019050808211156122fc576122fb61229f565b5b92915050565b600061230d82611e3e565b915061231883611e3e565b925082820261232681611e3e565b9150828204841483151761233d5761233c61229f565b5b5092915050565b7f4e487b7100000000000000000000000000000000000000000000000000000000600052601260045260246000fd5b600061237e82611e3e565b915061238983611e3e565b92508261239957612398612344565b5b828204905092915050565b7f4d61726b657420616c726561647920696e697469616c697a6564000000000000600082015250565b60006123da601a83611d34565b91506123e5826123a4565b602082019050919050565b60006020820190508181036000830152612409816123cd565b9050919050565b60006060820190506124256000830186612169565b6124326020830185612169565b61243f6040830184611ff6565b949350505050565b60008151905061245681612193565b92915050565b60006020828403121561247257612471611ddb565b5b600061248084828501612447565b91505092915050565b7f55534443207472616e73666572206661696c6564000000000000000000000000600082015250565b60006124bf601483611d34565b91506124ca82612489565b602082019050919050565b600060208201905081810360008301526124ee816124b2565b9050919050565b600060408201905061250a6000830185612169565b6125176020830184611ff6565b9392505050565b7f4d61726b657420616c7265616479207265736f6c766564000000000000000000600082015250565b6000612554601783611d34565b915061255f8261251e565b602082019050919050565b6000602082019050818103600083015261258381612547565b9050919050565b7f496e76616c6964206f7574636f6d6520283020666f72204e6f2c203120666f7260008201527f2059657329000000000000000000000000000000000000000000000000000000602082015250565b60006125e6602583611d34565b91506125f18261258a565b604082019050919050565b60006020820190508181036000830152612615816125d9565b9050919050565b600061262782611e3e565b915061263283611e3e565b925082820390508181111561264a5761264961229f565b5b92915050565b7f496e73756666696369656e74206e6f20746f6b656e7320696e20706f6f6c207460008201527f6f206275726e0000000000000000000000000000000000000000000000000000602082015250565b60006126ac602683611d34565b91506126b782612650565b604082019050919050565b600060208201905081810360008301526126db8161269f565b9050919050565b7f496e73756666696369656e742079657320746f6b656e7320696e20706f6f6c2060008201527f746f206275726e00000000000000000000000000000000000000000000000000602082015250565b600061273e602783611d34565b9150612749826126e2565b604082019050919050565b6000602082019050818103600083015261276d81612731565b9050919050565b60006060820190506127896000830186611ff6565b6127966020830185611ff6565b6127a36040830184611f52565b949350505050565b7f4d61726b6574206e6f7420796574207265736f6c766564000000000000000000600082015250565b60006127e1601783611d34565b91506127ec826127ab565b602082019050919050565b60006020820190508181036000830152612810816127d4565b9050919050565b60008151905061282681611e48565b92915050565b60006020828403121561284257612841611ddb565b5b600061285084828501612817565b91505092915050565b7f4e6f2077696e6e696e6720746f6b656e7320746f20636c61696d000000000000600082015250565b600061288f601a83611d34565b915061289a82612859565b602082019050919050565b600060208201905081810360008301526128be81612882565b9050919050565b60006060820190506128da6000830186612169565b6128e76020830185611ff6565b6128f46040830184611ff6565b94935050505056fea2646970667358221220daafdd9bfde317a5551e20e7453f87fe9f62d7dddf962bfc5104953f36f57b2064736f6c6343000814003360806040523480156200001157600080fd5b506040516200180d3803806200180d83398181016040528101906200003791906200023b565b818181600390816200004a91906200050b565b5080600490816200005c91906200050b565b50505033600560006101000a81548173ffffffffffffffffffffffffffffffffffffffff021916908373ffffffffffffffffffffffffffffffffffffffff1602179055505050620005f2565b6000604051905090565b600080fd5b600080fd5b600080fd5b600080fd5b6000601f19601f8301169050919050565b7f4e487b7100000000000000000000000000000000000000000000000000000000600052604160045260246000fd5b6200011182620000c6565b810181811067ffffffffffffffff82111715620001335762000132620000d7565b5b80604052505050565b600062000148620000a8565b905062000156828262000106565b919050565b600067ffffffffffffffff821115620001795762000178620000d7565b5b6200018482620000c6565b9050602081019050919050565b60005b83811015620001b157808201518184015260208101905062000194565b60008484015250505050565b6000620001d4620001ce846200015b565b6200013c565b905082815260208101848484011115620001f357620001f2620000c1565b5b6200020084828562000191565b509392505050565b600082601f83011262000220576200021f620000bc565b5b815162000232848260208601620001bd565b91505092915050565b60008060408385031215620002555762000254620000b2565b5b600083015167ffffffffffffffff811115620002765762000275620000b7565b5b620002848582860162000208565b925050602083015167ffffffffffffffff811115620002a857620002a7620000b7565b5b620002b68582860162000208565b9150509250929050565b600081519050919050565b7f4e487b7100000000000000000000000000000000000000000000000000000000600052602260045260246000fd5b600060028204905060018216806200031357607f821691505b602082108103620003295762000328620002cb565b5b50919050565b60008190508160005260206000209050919050565b60006020601f8301049050919050565b600082821b905092915050565b600060088302620003937fffffffffffffffffffffffffffffffffffffffffffffffffffffffffffffffff8262000354565b6200039f868362000354565b95508019841693508086168417925050509392505050565b6000819050919050565b6000819050919050565b6000620003ec620003e6620003e084620003b7565b620003c1565b620003b7565b9050919050565b6000819050919050565b6200040883620003cb565b620004206200041782620003f3565b84845462000361565b825550505050565b600090565b6200043762000428565b62000444818484620003fd565b505050565b5b818110156200046c57620004606000826200042d565b6001810190506200044a565b5050565b601f821115620004bb5762000485816200032f565b620004908462000344565b81016020851015620004a0578190505b620004b8620004af8562000344565b83018262000449565b50505b505050565b600082821c905092915050565b6000620004e060001984600802620004c0565b1980831691505092915050565b6000620004fb8383620004cd565b9150826002028217905092915050565b6200051682620002c0565b67ffffffffffffffff811115620005325762000531620000d7565b5b6200053e8254620002fa565b6200054b82828562000470565b600060209050601f8311600181146200058357600084156200056e578287015190505b6200057a8582620004ed565b865550620005ea565b601f19841662000593866200032f565b60005b82811015620005bd5784890151825560018201915060208501945060208101905062000596565b86831015620005dd5784890151620005d9601f891682620004cd565b8355505b6001600288020188555050505b505050505050565b61120b80620006026000396000f3fe608060405234801561001057600080fd5b50600436106100b45760003560e01c806340c10f191161007157806340c10f191461019157806370a08231146101ad57806395d89b41146101dd5780639dc29fac146101fb578063a9059cbb14610217578063dd62ed3e14610247576100b4565b806306fdde03146100b957806307546172146100d7578063095ea7b3146100f557806318160ddd1461012557806323b872dd14610143578063313ce56714610173575b600080fd5b6100c1610277565b6040516100ce9190610d87565b60405180910390f35b6100df610309565b6040516100ec9190610dea565b60405180910390f35b61010f600480360381019061010a9190610e6c565b61032f565b60405161011c9190610ec7565b60405180910390f35b61012d610352565b60405161013a9190610ef1565b60405180910390f35b61015d60048036038101906101589190610f0c565b61035c565b60405161016a9190610ec7565b60405180910390f35b61017b61038b565b6040516101889190610f7b565b60405180910390f35b6101ab60048036038101906101a69190610e6c565b610394565b005b6101c760048036038101906101c29190610f96565b610432565b6040516101d49190610ef1565b60405180910390f35b6101e561047a565b6040516101f29190610d87565b60405180910390f35b61021560048036038101906102109190610e6c565b61050c565b005b610231600480360381019061022c9190610e6c565b6105aa565b60405161023e9190610ec7565b60405180910390f35b610261600480360381019061025c9190610fc3565b6105cd565b60405161026e9190610ef1565b60405180910390f35b60606003805461028690611032565b80601f01602080910402602001604051908101604052809291908181526020018280546102b290611032565b80156102ff5780601f106102d4576101008083540402835291602001916102ff565b820191906000526020600020905b8154815290600101906020018083116102e257829003601f168201915b5050505050905090565b600560009054906101000a900473ffffffffffffffffffffffffffffffffffffffff1681565b60008061033a610654565b905061034781858561065c565b600191505092915050565b6000600254905090565b600080610367610654565b905061037485828561066e565b61037f858585610703565b60019150509392505050565b60006012905090565b600560009054906101000a900473ffffffffffffffffffffffffffffffffffffffff1673ffffffffffffffffffffffffffffffffffffffff163373ffffffffffffffffffffffffffffffffffffffff1614610424576040517f08c379a000000000000000000000000000000000000000000000000000000000815260040161041b906110af565b60405180910390fd5b61042e82826107f7565b5050565b60008060008373ffffffffffffffffffffffffffffffffffffffff1673ffffffffffffffffffffffffffffffffffffffff168152602001908152602001600020549050919050565b60606004805461048990611032565b80601f01602080910402602001604051908101604052809291908181526020018280546104b590611032565b80156105025780601f106104d757610100808354040283529160200191610502565b820191906000526020600020905b8154815290600101906020018083116104e557829003601f168201915b5050505050905090565b600560009054906101000a900473ffffffffffffffffffffffffffffffffffffffff1673ffffffffffffffffffffffffffffffffffffffff163373ffffffffffffffffffffffffffffffffffffffff161461059c576040517f08c379a00000000000000000000000000000000000000000000000000000000081526004016105939061111b565b60405180910390fd5b6105a68282610879565b5050565b6000806105b5610654565b90506105c2818585610703565b600191505092915050565b6000600160008473ffffffffffffffffffffffffffffffffffffffff1673ffffffffffffffffffffffffffffffffffffffff16815260200190815260200160002060008373ffffffffffffffffffffffffffffffffffffffff1673ffffffffffffffffffffffffffffffffffffffff16815260200190815260200160002054905092915050565b600033905090565b61066983838360016108fb565b505050565b600061067a84846105cd565b90507fffffffffffffffffffffffffffffffffffffffffffffffffffffffffffffffff8110156106fd57818110156106ed578281836040517ffb8f41b20000000000000000000000000000000000000000000000000000000081526004016106e49392919061113b565b60405180910390fd5b6106fc848484840360006108fb565b5b50505050565b600073ffffffffffffffffffffffffffffffffffffffff168373ffffffffffffffffffffffffffffffffffffffff16036107755760006040517f96c6fd1e00000000000000000000000000000000000000000000000000000000815260040161076c9190610dea565b60405180910390fd5b600073ffffffffffffffffffffffffffffffffffffffff168273ffffffffffffffffffffffffffffffffffffffff16036107e75760006040517fec442f050000000000000000000000000000000000000000000000000000000081526004016107de9190610dea565b60405180910390fd5b6107f2838383610ad2565b505050565b600073ffffffffffffffffffffffffffffffffffffffff168273ffffffffffffffffffffffffffffffffffffffff16036108695760006040517fec442f050000000000000000000000000000000000000000000000000000000081526004016108609190610dea565b60405180910390fd5b61087560008383610ad2565b5050565b600073ffffffffffffffffffffffffffffffffffffffff168273ffffffffffffffffffffffffffffffffffffffff16036108eb5760006040517f96c6fd1e0000000000000000000000000000000000000000000000000000000081526004016108e29190610dea565b60405180910390fd5b6108f782600083610ad2565b5050565b600073ffffffffffffffffffffffffffffffffffffffff168473ffffffffffffffffffffffffffffffffffffffff160361096d5760006040517fe602df050000000000000000000000000000000000000000000000000000000081526004016109649190610dea565b60405180910390fd5b600073ffffffffffffffffffffffffffffffffffffffff168373ffffffffffffffffffffffffffffffffffffffff16036109df5760006040517f94280d620000000000000000000000000000000000000000000000000000000081526004016109d69190610dea565b60405180910390fd5b81600160008673ffffffffffffffffffffffffffffffffffffffff1673ffffffffffffffffffffffffffffffffffffffff16815260200190815260200160002060008573ffffffffffffffffffffffffffffffffffffffff1673ffffffffffffffffffffffffffffffffffffffff168152602001908152602001600020819055508015610acc578273ffffffffffffffffffffffffffffffffffffffff168473ffffffffffffffffffffffffffffffffffffffff167f8c5be1e5ebec7d5bd14f71427d1e84f3dd0314c0f7b2291e5b200ac8c7c3b92584604051610ac39190610ef1565b60405180910390a35b50505050565b600073ffffffffffffffffffffffffffffffffffffffff168373ffffffffffffffffffffffffffffffffffffffff1603610b24578060026000828254610b1891906111a1565b92505081905550610bf7565b60008060008573ffffffffffffffffffffffffffffffffffffffff1673ffffffffffffffffffffffffffffffffffffffff16815260200190815260200160002054905081811015610bb0578381836040517fe450d38c000000000000000000000000000000000000000000000000000000008152600401610ba79392919061113b565b60405180910390fd5b8181036000808673ffffffffffffffffffffffffffffffffffffffff1673ffffffffffffffffffffffffffffffffffffffff16815260200190815260200160002081905550505b600073ffffffffffffffffffffffffffffffffffffffff168273ffffffffffffffffffffffffffffffffffffffff1603610c405780600260008282540392505081905550610c8d565b806000808473ffffffffffffffffffffffffffffffffffffffff1673ffffffffffffffffffffffffffffffffffffffff168152602001908152602001600020600082825401925050819055505b8173ffffffffffffffffffffffffffffffffffffffff168373ffffffffffffffffffffffffffffffffffffffff167fddf252ad1be2c89b69c2b068fc378daa952ba7f163c4a11628f55a4df523b3ef83604051610cea9190610ef1565b60405180910390a3505050565b600081519050919050565b600082825260208201905092915050565b60005b83811015610d31578082015181840152602081019050610d16565b60008484015250505050565b6000601f19601f8301169050919050565b6000610d5982610cf7565b610d638185610d02565b9350610d73818560208601610d13565b610d7c81610d3d565b840191505092915050565b60006020820190508181036000830152610da18184610d4e565b905092915050565b600073ffffffffffffffffffffffffffffffffffffffff82169050919050565b6000610dd482610da9565b9050919050565b610de481610dc9565b82525050565b6000602082019050610dff6000830184610ddb565b92915050565b600080fd5b610e1381610dc9565b8114610e1e57600080fd5b50565b600081359050610e3081610e0a565b92915050565b6000819050919050565b610e4981610e36565b8114610e5457600080fd5b50565b600081359050610e6681610e40565b92915050565b60008060408385031215610e8357610e82610e05565b5b6000610e9185828601610e21565b9250506020610ea285828601610e57565b9150509250929050565b60008115159050919050565b610ec181610eac565b82525050565b6000602082019050610edc6000830184610eb8565b92915050565b610eeb81610e36565b82525050565b6000602082019050610f066000830184610ee2565b92915050565b600080600060608486031215610f2557610f24610e05565b5b6000610f3386828701610e21565b9350506020610f4486828701610e21565b9250506040610f5586828701610e57565b9150509250925092565b600060ff82169050919050565b610f7581610f5f565b82525050565b6000602082019050610f906000830184610f6c565b92915050565b600060208284031215610fac57610fab610e05565b5b6000610fba84828501610e21565b91505092915050565b60008060408385031215610fda57610fd9610e05565b5b6000610fe885828601610e21565b9250506020610ff985828601610e21565b9150509250929050565b7f4e487b7100000000000000000000000000000000000000000000000000000000600052602260045260246000fd5b6000600282049050600182168061104a57607f821691505b60208210810361105d5761105c611003565b5b50919050565b7f4f6e6c79206d696e7465722063616e206d696e74000000000000000000000000600082015250565b6000611099601483610d02565b91506110a482611063565b602082019050919050565b600060208201905081810360008301526110c88161108c565b9050919050565b7f4f6e6c79206d696e7465722063616e206275726e000000000000000000000000600082015250565b6000611105601483610d02565b9150611110826110cf565b602082019050919050565b60006020820190508181036000830152611134816110f8565b9050919050565b60006060820190506111506000830186610ddb565b61115d6020830185610ee2565b61116a6040830184610ee2565b949350505050565b7f4e487b7100000000000000000000000000000000000000000000000000000000600052601160045260246000fd5b60006111ac82610e36565b91506111b783610e36565b92508282019050808211156111cf576111ce611172565b5b9291505056fea2646970667358221220e2bb211269d4a0f81b0f7fef361a6ff6fccd94ca0f636293bad58d8778935a3864736f6c63430008140033",
  "linkReferences": {},
  "deployedLinkReferences": {}
}