{
  "_format": "hh-sol-artifact-1",
  "contractName": "PredictionMarket",
  "sourceName": "contracts/PredictionMarket.sol",
  "abi": [
    {
      "inputs": [
        {
          "internalType": "string",
          "name": "_question",
          "type": "string"
        },
        {
          "internalType": "enum PredictionMarket.Category",
          "name": "_category",
          "type": "uint8"
        },
        {
          "internalType": "address",
          "name": "_oracle",
          "type": "address"
        },
        {
          "internalType": "address",
          "name": "_usdcToken",
          "type": "address"
        },
        {
          "internalType": "address",
          "name": "_yesToken",
          "type": "address"
        },
        {
          "internalType": "address",
          "name": "_noToken",
          "type": "address"
        }
      ],
      "stateMutability": "nonpayable",
      "type": "constructor"
    },
    {
      "inputs": [
        {
          "internalType": "address",
          "name": "owner",
          "type": "address"
        }
      ],
      "name": "OwnableInvalidOwner",
      "type": "error"
    },
    {
      "inputs": [
        {
          "internalType": "address",
          "name": "account",
          "type": "address"
        }
      ],
      "name": "OwnableUnauthorizedAccount",
      "type": "error"
    },
    {
      "inputs": [
        {
          "internalType": "uint256",
          "name": "prod1",
          "type": "uint256"
        }
      ],
      "name": "PRBMath__MulDivFixedPointOverflow",
      "type": "error"
    },
    {
      "inputs": [
        {
          "internalType": "uint256",
          "name": "prod1",
          "type": "uint256"
        },
        {
          "internalType": "uint256",
          "name": "denominator",
          "type": "uint256"
        }
      ],
      "name": "PRBMath__MulDivOverflow",
      "type": "error"
    },
    {
      "anonymous": false,
      "inputs": [
        {
          "indexed": true,
          "internalType": "address",
          "name": "user",
          "type": "address"
        },
        {
          "indexed": false,
          "internalType": "uint256",
          "name": "amount",
          "type": "uint256"
        },
        {
          "indexed": false,
          "internalType": "bool",
          "name": "onYes",
          "type": "bool"
        }
      ],
      "name": "Bet",
      "type": "event"
    },
    {
      "anonymous": false,
      "inputs": [
        {
          "indexed": true,
          "internalType": "address",
          "name": "previousOwner",
          "type": "address"
        },
        {
          "indexed": true,
          "internalType": "address",
          "name": "newOwner",
          "type": "address"
        }
      ],
      "name": "OwnershipTransferred",
      "type": "event"
    },
    {
      "anonymous": false,
      "inputs": [
        {
          "indexed": false,
          "internalType": "bool",
          "name": "outcome",
          "type": "bool"
        }
      ],
      "name": "Resolved",
      "type": "event"
    },
    {
      "inputs": [],
      "name": "K",
      "outputs": [
        {
          "internalType": "uint256",
          "name": "",
          "type": "uint256"
        }
      ],
      "stateMutability": "view",
      "type": "function"
    },
    {
      "inputs": [
        {
          "internalType": "uint256",
          "name": "amount",
          "type": "uint256"
        },
        {
          "internalType": "bool",
          "name": "onYes",
          "type": "bool"
        }
      ],
      "name": "bet",
      "outputs": [],
      "stateMutability": "nonpayable",
      "type": "function"
    },
    {
      "inputs": [],
      "name": "category",
      "outputs": [
        {
          "internalType": "enum PredictionMarket.Category",
          "name": "",
          "type": "uint8"
        }
      ],
      "stateMutability": "view",
      "type": "function"
    },
    {
      "inputs": [],
      "name": "claim",
      "outputs": [],
      "stateMutability": "nonpayable",
      "type": "function"
    },
    {
      "inputs": [],
      "name": "getProbability",
      "outputs": [
        {
          "internalType": "uint256",
          "name": "",
          "type": "uint256"
        }
      ],
      "stateMutability": "view",
      "type": "function"
    },
    {
      "inputs": [],
      "name": "initialize",
      "outputs": [],
      "stateMutability": "nonpayable",
      "type": "function"
    },
    {
      "inputs": [],
      "name": "noToken",
      "outputs": [
        {
          "internalType": "contract MintableERC20",
          "name": "",
          "type": "address"
        }
      ],
      "stateMutability": "view",
      "type": "function"
    },
    {
      "inputs": [],
      "name": "oracle",
      "outputs": [
        {
          "internalType": "address",
          "name": "",
          "type": "address"
        }
      ],
      "stateMutability": "view",
      "type": "function"
    },
    {
      "inputs": [],
      "name": "outcome",
      "outputs": [
        {
          "internalType": "bool",
          "name": "",
          "type": "bool"
        }
      ],
      "stateMutability": "view",
      "type": "function"
    },
    {
      "inputs": [],
      "name": "owner",
      "outputs": [
        {
          "internalType": "address",
          "name": "",
          "type": "address"
        }
      ],
      "stateMutability": "view",
      "type": "function"
    },
    {
      "inputs": [],
      "name": "question",
      "outputs": [
        {
          "internalType": "string",
          "name": "",
          "type": "string"
        }
      ],
      "stateMutability": "view",
      "type": "function"
    },
    {
      "inputs": [],
      "name": "renounceOwnership",
      "outputs": [],
      "stateMutability": "nonpayable",
      "type": "function"
    },
    {
      "inputs": [
        {
          "internalType": "bool",
          "name": "_outcome",
          "type": "bool"
        }
      ],
      "name": "resolve",
      "outputs": [],
      "stateMutability": "nonpayable",
      "type": "function"
    },
    {
      "inputs": [],
      "name": "resolved",
      "outputs": [
        {
          "internalType": "bool",
          "name": "",
          "type": "bool"
        }
      ],
      "stateMutability": "view",
      "type": "function"
    },
    {
      "inputs": [
        {
          "internalType": "address",
          "name": "newOwner",
          "type": "address"
        }
      ],
      "name": "transferOwnership",
      "outputs": [],
      "stateMutability": "nonpayable",
      "type": "function"
    },
    {
      "inputs": [],
      "name": "usdcToken",
      "outputs": [
        {
          "internalType": "contract ERC20",
          "name": "",
          "type": "address"
        }
      ],
      "stateMutability": "view",
      "type": "function"
    },
    {
      "inputs": [],
      "name": "yesToken",
      "outputs": [
        {
          "internalType": "contract MintableERC20",
          "name": "",
          "type": "address"
        }
      ],
      "stateMutability": "view",
      "type": "function"
    }
  ],
  "bytecode": "0x60e06040523480156200001157600080fd5b5060405162002b6338038062002b638339818101604052810190620000379190620004cb565b33600073ffffffffffffffffffffffffffffffffffffffff168173ffffffffffffffffffffffffffffffffffffffff1603620000ad5760006040517f1e4fbdf7000000000000000000000000000000000000000000000000000000008152600401620000a4919062000597565b60405180910390fd5b620000be81620001e760201b60201c565b508560019081620000d09190620007ff565b5084600060146101000a81548160ff02191690836003811115620000f957620000f8620008e6565b5b021790555083600260006101000a81548173ffffffffffffffffffffffffffffffffffffffff021916908373ffffffffffffffffffffffffffffffffffffffff1602179055508273ffffffffffffffffffffffffffffffffffffffff1660808173ffffffffffffffffffffffffffffffffffffffff16815250508173ffffffffffffffffffffffffffffffffffffffff1660a08173ffffffffffffffffffffffffffffffffffffffff16815250508073ffffffffffffffffffffffffffffffffffffffff1660c08173ffffffffffffffffffffffffffffffffffffffff168152505050505050505062000915565b60008060009054906101000a900473ffffffffffffffffffffffffffffffffffffffff169050816000806101000a81548173ffffffffffffffffffffffffffffffffffffffff021916908373ffffffffffffffffffffffffffffffffffffffff1602179055508173ffffffffffffffffffffffffffffffffffffffff168173ffffffffffffffffffffffffffffffffffffffff167f8be0079c531659141344cd1fd0a4f28419497f9722a3daafe3b4186f6b6457e060405160405180910390a35050565b6000604051905090565b600080fd5b600080fd5b600080fd5b600080fd5b6000601f19601f8301169050919050565b7f4e487b7100000000000000000000000000000000000000000000000000000000600052604160045260246000fd5b6200031482620002c9565b810181811067ffffffffffffffff82111715620003365762000335620002da565b5b80604052505050565b60006200034b620002ab565b905062000359828262000309565b919050565b600067ffffffffffffffff8211156200037c576200037b620002da565b5b6200038782620002c9565b9050602081019050919050565b60005b83811015620003b457808201518184015260208101905062000397565b60008484015250505050565b6000620003d7620003d1846200035e565b6200033f565b905082815260208101848484011115620003f657620003f5620002c4565b5b6200040384828562000394565b509392505050565b600082601f830112620004235762000422620002bf565b5b815162000435848260208601620003c0565b91505092915050565b600481106200044c57600080fd5b50565b60008151905062000460816200043e565b92915050565b600073ffffffffffffffffffffffffffffffffffffffff82169050919050565b6000620004938262000466565b9050919050565b620004a58162000486565b8114620004b157600080fd5b50565b600081519050620004c5816200049a565b92915050565b60008060008060008060c08789031215620004eb57620004ea620002b5565b5b600087015167ffffffffffffffff8111156200050c576200050b620002ba565b5b6200051a89828a016200040b565b96505060206200052d89828a016200044f565b95505060406200054089828a01620004b4565b94505060606200055389828a01620004b4565b93505060806200056689828a01620004b4565b92505060a06200057989828a01620004b4565b9150509295509295509295565b620005918162000486565b82525050565b6000602082019050620005ae600083018462000586565b92915050565b600081519050919050565b7f4e487b7100000000000000000000000000000000000000000000000000000000600052602260045260246000fd5b600060028204905060018216806200060757607f821691505b6020821081036200061d576200061c620005bf565b5b50919050565b60008190508160005260206000209050919050565b60006020601f8301049050919050565b600082821b905092915050565b600060088302620006877fffffffffffffffffffffffffffffffffffffffffffffffffffffffffffffffff8262000648565b62000693868362000648565b95508019841693508086168417925050509392505050565b6000819050919050565b6000819050919050565b6000620006e0620006da620006d484620006ab565b620006b5565b620006ab565b9050919050565b6000819050919050565b620006fc83620006bf565b620007146200070b82620006e7565b84845462000655565b825550505050565b600090565b6200072b6200071c565b62000738818484620006f1565b505050565b5b8181101562000760576200075460008262000721565b6001810190506200073e565b5050565b601f821115620007af57620007798162000623565b620007848462000638565b8101602085101562000794578190505b620007ac620007a38562000638565b8301826200073d565b50505b505050565b600082821c905092915050565b6000620007d460001984600802620007b4565b1980831691505092915050565b6000620007ef8383620007c1565b9150826002028217905092915050565b6200080a82620005b4565b67ffffffffffffffff811115620008265762000825620002da565b5b620008328254620005ee565b6200083f82828562000764565b600060209050601f83116001811462000877576000841562000862578287015190505b6200086e8582620007e1565b865550620008de565b601f198416620008878662000623565b60005b82811015620008b1578489015182556001820191506020850194506020810190506200088a565b86831015620008d15784890151620008cd601f891682620007c1565b8355505b6001600288020188555050505b505050505050565b7f4e487b7100000000000000000000000000000000000000000000000000000000600052602160045260246000fd5b60805160a05160c05161218b620009d86000396000818161041d015281816105ba01528181610918015281816109b401528181610bdd01528181610e7201528181610f9f01528181611114015281816112ce015261139b01526000818161051c01528181610724015281816107c001528181610b5001528181610de501528181610f010152818161106c015281816111a10152818161123001526114b50152600081816104410152818161086101528181610a550152610d29015261218b6000f3fe608060405234801561001057600080fd5b506004361061010b5760003560e01c8063715018a6116100a25780639a6d3aaa116100715780639a6d3aaa1461023a578063a932492f14610256578063ef430aa614610274578063f0d9bb2014610292578063f2fde38b146102b05761010b565b8063715018a6146101ea5780637dc0d1d0146101f45780638129fc1c146102125780638da5cb5b1461021c5761010b565b80633f6fa655116100de5780633f6fa655146101865780633fad9ae0146101a457806345993c66146101c25780634e71d92d146101e05761010b565b80630bede3f81461011057806311a9f10a1461012c57806311eac8551461014a57806327793f8714610168575b600080fd5b61012a60048036038101906101259190611930565b6102cc565b005b61013461041b565b60405161014191906119dc565b60405180910390f35b61015261043f565b60405161015f9190611a18565b60405180910390f35b610170610463565b60405161017d9190611a42565b60405180910390f35b61018e610476565b60405161019b9190611a42565b60405180910390f35b6101ac610489565b6040516101b99190611aed565b60405180910390f35b6101ca610517565b6040516101d79190611b28565b60405180910390f35b6101e86106bc565b005b6101f2610b06565b005b6101fc610b1a565b6040516102099190611b64565b60405180910390f35b61021a610b40565b005b610224610c6b565b6040516102319190611b64565b60405180910390f35b610254600480360381019061024f9190611bab565b610c94565b005b61025e611492565b60405161026b9190611b28565b60405180910390f35b61027c6114a0565b6040516102899190611c62565b60405180910390f35b61029a6114b3565b6040516102a791906119dc565b60405180910390f35b6102ca60048036038101906102c59190611ca9565b6114d7565b005b600260009054906101000a900473ffffffffffffffffffffffffffffffffffffffff1673ffffffffffffffffffffffffffffffffffffffff163373ffffffffffffffffffffffffffffffffffffffff161461035c576040517f08c379a000000000000000000000000000000000000000000000000000000000815260040161035390611d22565b60405180910390fd5b600260149054906101000a900460ff16156103ac576040517f08c379a00000000000000000000000000000000000000000000000000000000081526004016103a390611d8e565b60405180910390fd5b6001600260146101000a81548160ff02191690831515021790555080600260156101000a81548160ff0219169083151502179055507fdabf623a6bec72ad159e2d9533e7149ec45bfc657e39f49fb6a9509852dc77dc816040516104109190611a42565b60405180910390a150565b7f000000000000000000000000000000000000000000000000000000000000000081565b7f000000000000000000000000000000000000000000000000000000000000000081565b600260159054906101000a900460ff1681565b600260149054906101000a900460ff1681565b6001805461049690611ddd565b80601f01602080910402602001604051908101604052809291908181526020018280546104c290611ddd565b801561050f5780601f106104e45761010080835404028352916020019161050f565b820191906000526020600020905b8154815290600101906020018083116104f257829003601f168201915b505050505081565b6000807f000000000000000000000000000000000000000000000000000000000000000073ffffffffffffffffffffffffffffffffffffffff166370a08231306040518263ffffffff1660e01b81526004016105739190611b64565b602060405180830381865afa158015610590573d6000803e3d6000fd5b505050506040513d601f19601f820116820180604052508101906105b49190611e23565b905060007f000000000000000000000000000000000000000000000000000000000000000073ffffffffffffffffffffffffffffffffffffffff166370a08231306040518263ffffffff1660e01b81526004016106119190611b64565b602060405180830381865afa15801561062e573d6000803e3d6000fd5b505050506040513d601f19601f820116820180604052508101906106529190611e23565b905060008214806106635750600081145b1561067b576802b5e3af16b1880000925050506106b9565b6106b4818361068a9190611e7f565b6106a668056bc75e2d631000008461155d90919063ffffffff16565b61157190919063ffffffff16565b925050505b90565b600260149054906101000a900460ff1661070b576040517f08c379a000000000000000000000000000000000000000000000000000000000815260040161070290611eff565b60405180910390fd5b600260159054906101000a900460ff16156109145760007f000000000000000000000000000000000000000000000000000000000000000073ffffffffffffffffffffffffffffffffffffffff166370a08231336040518263ffffffff1660e01b815260040161077b9190611b64565b602060405180830381865afa158015610798573d6000803e3d6000fd5b505050506040513d601f19601f820116820180604052508101906107bc9190611e23565b90507f000000000000000000000000000000000000000000000000000000000000000073ffffffffffffffffffffffffffffffffffffffff166323b872dd3330846040518463ffffffff1660e01b815260040161081b93929190611f1f565b6020604051808303816000875af115801561083a573d6000803e3d6000fd5b505050506040513d601f19601f8201168201806040525081019061085e9190611f6b565b507f000000000000000000000000000000000000000000000000000000000000000073ffffffffffffffffffffffffffffffffffffffff1663a9059cbb3364e8d4a51000846108ad9190611fc7565b6040518363ffffffff1660e01b81526004016108ca929190611ff8565b6020604051808303816000875af11580156108e9573d6000803e3d6000fd5b505050506040513d601f19601f8201168201806040525081019061090d9190611f6b565b5050610b04565b60007f000000000000000000000000000000000000000000000000000000000000000073ffffffffffffffffffffffffffffffffffffffff166370a08231336040518263ffffffff1660e01b815260040161096f9190611b64565b602060405180830381865afa15801561098c573d6000803e3d6000fd5b505050506040513d601f19601f820116820180604052508101906109b09190611e23565b90507f000000000000000000000000000000000000000000000000000000000000000073ffffffffffffffffffffffffffffffffffffffff166323b872dd3330846040518463ffffffff1660e01b8152600401610a0f93929190611f1f565b6020604051808303816000875af1158015610a2e573d6000803e3d6000fd5b505050506040513d601f19601f82011682018060405250810190610a529190611f6b565b507f000000000000000000000000000000000000000000000000000000000000000073ffffffffffffffffffffffffffffffffffffffff1663a9059cbb3364e8d4a5100084610aa19190611fc7565b6040518363ffffffff1660e01b8152600401610abe929190611ff8565b6020604051808303816000875af1158015610add573d6000803e3d6000fd5b505050506040513d601f19601f82011682018060405250810190610b019190611f6b565b50505b565b610b0e61158e565b610b186000611615565b565b600260009054906101000a900473ffffffffffffffffffffffffffffffffffffffff1681565b6000681b1ae4d6e2ef50000090507f000000000000000000000000000000000000000000000000000000000000000073ffffffffffffffffffffffffffffffffffffffff166340c10f1930836040518363ffffffff1660e01b8152600401610ba9929190611ff8565b600060405180830381600087803b158015610bc357600080fd5b505af1158015610bd7573d6000803e3d6000fd5b505050507f000000000000000000000000000000000000000000000000000000000000000073ffffffffffffffffffffffffffffffffffffffff166340c10f1930836040518363ffffffff1660e01b8152600401610c36929190611ff8565b600060405180830381600087803b158015610c5057600080fd5b505af1158015610c64573d6000803e3d6000fd5b5050505050565b60008060009054906101000a900473ffffffffffffffffffffffffffffffffffffffff16905090565b600260149054906101000a900460ff1615610ce4576040517f08c379a0000000000000000000000000000000000000000000000000000000008152600401610cdb90611d8e565b60405180910390fd5b60008211610d27576040517f08c379a0000000000000000000000000000000000000000000000000000000008152600401610d1e9061206d565b60405180910390fd5b7f000000000000000000000000000000000000000000000000000000000000000073ffffffffffffffffffffffffffffffffffffffff166323b872dd3330856040518463ffffffff1660e01b8152600401610d8493929190611f1f565b6020604051808303816000875af1158015610da3573d6000803e3d6000fd5b505050506040513d601f19601f82011682018060405250810190610dc79190611f6b565b50600064e8d4a5100083610ddb919061208d565b90508115611112577f000000000000000000000000000000000000000000000000000000000000000073ffffffffffffffffffffffffffffffffffffffff166340c10f1933836040518363ffffffff1660e01b8152600401610e3e929190611ff8565b600060405180830381600087803b158015610e5857600080fd5b505af1158015610e6c573d6000803e3d6000fd5b505050507f000000000000000000000000000000000000000000000000000000000000000073ffffffffffffffffffffffffffffffffffffffff166340c10f1930836040518363ffffffff1660e01b8152600401610ecb929190611ff8565b600060405180830381600087803b158015610ee557600080fd5b505af1158015610ef9573d6000803e3d6000fd5b5050505060007f000000000000000000000000000000000000000000000000000000000000000073ffffffffffffffffffffffffffffffffffffffff166370a08231306040518263ffffffff1660e01b8152600401610f589190611b64565b602060405180830381865afa158015610f75573d6000803e3d6000fd5b505050506040513d601f19601f82011682018060405250810190610f999190611e23565b905060007f000000000000000000000000000000000000000000000000000000000000000073ffffffffffffffffffffffffffffffffffffffff166370a08231306040518263ffffffff1660e01b8152600401610ff69190611b64565b602060405180830381865afa158015611013573d6000803e3d6000fd5b505050506040513d601f19601f820116820180604052508101906110379190611e23565b90506000611058826934f086f3b33b6840000061157190919063ffffffff16565b90506000818461106891906120cf565b90507f000000000000000000000000000000000000000000000000000000000000000073ffffffffffffffffffffffffffffffffffffffff1663a9059cbb33836040518363ffffffff1660e01b81526004016110c5929190611ff8565b6020604051808303816000875af11580156110e4573d6000803e3d6000fd5b505050506040513d601f19601f820116820180604052508101906111089190611f6b565b505050505061143d565b7f000000000000000000000000000000000000000000000000000000000000000073ffffffffffffffffffffffffffffffffffffffff166340c10f1933836040518363ffffffff1660e01b815260040161116d929190611ff8565b600060405180830381600087803b15801561118757600080fd5b505af115801561119b573d6000803e3d6000fd5b505050507f000000000000000000000000000000000000000000000000000000000000000073ffffffffffffffffffffffffffffffffffffffff166340c10f1930836040518363ffffffff1660e01b81526004016111fa929190611ff8565b600060405180830381600087803b15801561121457600080fd5b505af1158015611228573d6000803e3d6000fd5b5050505060007f000000000000000000000000000000000000000000000000000000000000000073ffffffffffffffffffffffffffffffffffffffff166370a08231306040518263ffffffff1660e01b81526004016112879190611b64565b602060405180830381865afa1580156112a4573d6000803e3d6000fd5b505050506040513d601f19601f820116820180604052508101906112c89190611e23565b905060007f000000000000000000000000000000000000000000000000000000000000000073ffffffffffffffffffffffffffffffffffffffff166370a08231306040518263ffffffff1660e01b81526004016113259190611b64565b602060405180830381865afa158015611342573d6000803e3d6000fd5b505050506040513d601f19601f820116820180604052508101906113669190611e23565b90506000611387836934f086f3b33b6840000061157190919063ffffffff16565b90506000818361139791906120cf565b90507f000000000000000000000000000000000000000000000000000000000000000073ffffffffffffffffffffffffffffffffffffffff1663a9059cbb33836040518363ffffffff1660e01b81526004016113f4929190611ff8565b6020604051808303816000875af1158015611413573d6000803e3d6000fd5b505050506040513d601f19601f820116820180604052508101906114379190611f6b565b50505050505b3373ffffffffffffffffffffffffffffffffffffffff167f9617cace81b9513da7c8288c2084a08ed3c21daafff9d3681243f1fb741a45038484604051611485929190612103565b60405180910390a2505050565b6934f086f3b33b6840000081565b600060149054906101000a900460ff1681565b7f000000000000000000000000000000000000000000000000000000000000000081565b6114df61158e565b600073ffffffffffffffffffffffffffffffffffffffff168173ffffffffffffffffffffffffffffffffffffffff16036115515760006040517f1e4fbdf70000000000000000000000000000000000000000000000000000000081526004016115489190611b64565b60405180910390fd5b61155a81611615565b50565b600061156983836116d9565b905092915050565b600061158683670de0b6b3a7640000846117d6565b905092915050565b6115966118eb565b73ffffffffffffffffffffffffffffffffffffffff166115b4610c6b565b73ffffffffffffffffffffffffffffffffffffffff1614611613576115d76118eb565b6040517f118cdaa700000000000000000000000000000000000000000000000000000000815260040161160a9190611b64565b60405180910390fd5b565b60008060009054906101000a900473ffffffffffffffffffffffffffffffffffffffff169050816000806101000a81548173ffffffffffffffffffffffffffffffffffffffff021916908373ffffffffffffffffffffffffffffffffffffffff1602179055508173ffffffffffffffffffffffffffffffffffffffff168173ffffffffffffffffffffffffffffffffffffffff167f8be0079c531659141344cd1fd0a4f28419497f9722a3daafe3b4186f6b6457e060405160405180910390a35050565b60008060008019848609848602925082811083820303915050670de0b6b3a7640000811061173e57806040517fd31b34020000000000000000000000000000000000000000000000000000000081526004016117359190611b28565b60405180910390fd5b600080670de0b6b3a764000086880991506706f05b59d3b1ffff821190506000830361178a5780670de0b6b3a7640000858161177d5761177c611f98565b5b04019450505050506117d0565b807faccb18165bd6fe31ae1cf318dc5b51eee0e1ba569b88cd74c1773b91fac1066960016204000080600003040186851186030262040000858803041702019450505050505b92915050565b60008060008019858709858702925082811083820303915050600081036118115783828161180757611806611f98565b5b04925050506118e4565b8381106118575780846040517f773cc18c00000000000000000000000000000000000000000000000000000000815260040161184e92919061212c565b60405180910390fd5b60008486880990508281118203915080830392506000600186190186169050808604955080840493506001818260000304019050808302841793506000600287600302189050808702600203810290508087026002038102905080870260020381029050808702600203810290508087026002038102905080870260020381029050808502955050505050505b9392505050565b600033905090565b600080fd5b60008115159050919050565b61190d816118f8565b811461191857600080fd5b50565b60008135905061192a81611904565b92915050565b600060208284031215611946576119456118f3565b5b60006119548482850161191b565b91505092915050565b600073ffffffffffffffffffffffffffffffffffffffff82169050919050565b6000819050919050565b60006119a261199d6119988461195d565b61197d565b61195d565b9050919050565b60006119b482611987565b9050919050565b60006119c6826119a9565b9050919050565b6119d6816119bb565b82525050565b60006020820190506119f160008301846119cd565b92915050565b6000611a02826119a9565b9050919050565b611a12816119f7565b82525050565b6000602082019050611a2d6000830184611a09565b92915050565b611a3c816118f8565b82525050565b6000602082019050611a576000830184611a33565b92915050565b600081519050919050565b600082825260208201905092915050565b60005b83811015611a97578082015181840152602081019050611a7c565b60008484015250505050565b6000601f19601f8301169050919050565b6000611abf82611a5d565b611ac98185611a68565b9350611ad9818560208601611a79565b611ae281611aa3565b840191505092915050565b60006020820190508181036000830152611b078184611ab4565b905092915050565b6000819050919050565b611b2281611b0f565b82525050565b6000602082019050611b3d6000830184611b19565b92915050565b6000611b4e8261195d565b9050919050565b611b5e81611b43565b82525050565b6000602082019050611b796000830184611b55565b92915050565b611b8881611b0f565b8114611b9357600080fd5b50565b600081359050611ba581611b7f565b92915050565b60008060408385031215611bc257611bc16118f3565b5b6000611bd085828601611b96565b9250506020611be18582860161191b565b9150509250929050565b7f4e487b7100000000000000000000000000000000000000000000000000000000600052602160045260246000fd5b60048110611c2b57611c2a611beb565b5b50565b6000819050611c3c82611c1a565b919050565b6000611c4c82611c2e565b9050919050565b611c5c81611c41565b82525050565b6000602082019050611c776000830184611c53565b92915050565b611c8681611b43565b8114611c9157600080fd5b50565b600081359050611ca381611c7d565b92915050565b600060208284031215611cbf57611cbe6118f3565b5b6000611ccd84828501611c94565b91505092915050565b7f4f6e6c79206f7261636c652063616e207265736f6c7665000000000000000000600082015250565b6000611d0c601783611a68565b9150611d1782611cd6565b602082019050919050565b60006020820190508181036000830152611d3b81611cff565b9050919050565b7f4d61726b657420697320616c7265616479207265736f6c766564000000000000600082015250565b6000611d78601a83611a68565b9150611d8382611d42565b602082019050919050565b60006020820190508181036000830152611da781611d6b565b9050919050565b7f4e487b7100000000000000000000000000000000000000000000000000000000600052602260045260246000fd5b60006002820490506001821680611df557607f821691505b602082108103611e0857611e07611dae565b5b50919050565b600081519050611e1d81611b7f565b92915050565b600060208284031215611e3957611e386118f3565b5b6000611e4784828501611e0e565b91505092915050565b7f4e487b7100000000000000000000000000000000000000000000000000000000600052601160045260246000fd5b6000611e8a82611b0f565b9150611e9583611b0f565b9250828201905080821115611ead57611eac611e50565b5b92915050565b7f4d61726b6574206973206e6f74207265736f6c76656420796574000000000000600082015250565b6000611ee9601a83611a68565b9150611ef482611eb3565b602082019050919050565b60006020820190508181036000830152611f1881611edc565b9050919050565b6000606082019050611f346000830186611b55565b611f416020830185611b55565b611f4e6040830184611b19565b949350505050565b600081519050611f6581611904565b92915050565b600060208284031215611f8157611f806118f3565b5b6000611f8f84828501611f56565b91505092915050565b7f4e487b7100000000000000000000000000000000000000000000000000000000600052601260045260246000fd5b6000611fd282611b0f565b9150611fdd83611b0f565b925082611fed57611fec611f98565b5b828204905092915050565b600060408201905061200d6000830185611b55565b61201a6020830184611b19565b9392505050565b7f416d6f756e74206d7573742062652067726561746572207468616e2030000000600082015250565b6000612057601d83611a68565b915061206282612021565b602082019050919050565b600060208201905081810360008301526120868161204a565b9050919050565b600061209882611b0f565b91506120a383611b0f565b92508282026120b181611b0f565b915082820484148315176120c8576120c7611e50565b5b5092915050565b60006120da82611b0f565b91506120e583611b0f565b92508282039050818111156120fd576120fc611e50565b5b92915050565b60006040820190506121186000830185611b19565b6121256020830184611a33565b9392505050565b60006040820190506121416000830185611b19565b61214e6020830184611b19565b939250505056fea26469706673582212206780df0d101b48dfd52a34c01a11d8f71b593619add931e9896f8f135c4131a064736f6c63430008180033",
  "linkReferences": {},
  "deployedLinkReferences": {}
}