{
  "address": "0xEC7cb8C3EBE77BA6d284F13296bb1372A8522c5F",
  "abi": [
    {
      "anonymous": false,
      "inputs": [
        {
          "indexed": true,
          "internalType": "address",
          "name": "marketAddress",
          "type": "address"
        },
        {
          "indexed": false,
          "internalType": "string",
          "name": "question",
          "type": "string"
        },
        {
          "indexed": false,
          "internalType": "enum PredictionMarketNWayFixedModel.Category",
          "name": "category",
          "type": "uint8"
        }
      ],
      "name": "MarketCreatedNWayFixedModel",
      "type": "event"
    },
    {
      "inputs": [
        {
          "internalType": "string",
          "name": "_question",
          "type": "string"
        },
        {
          "internalType": "enum PredictionMarketNWayFixedModel.Category",
          "name": "_category",
          "type": "uint8"
        },
        {
          "internalType": "address",
          "name": "_oracle",
          "type": "address"
        },
        {
          "internalType": "address",
          "name": "_usdcToken",
          "type": "address"
        },
        {
          "internalType": "uint256",
          "name": "_numOutcomes",
          "type": "uint256"
        }
      ],
      "name": "createMarket",
      "outputs": [
        {
          "internalType": "address",
          "name": "",
          "type": "address"
        }
      ],
      "stateMutability": "nonpayable",
      "type": "function"
    },
    {
      "inputs": [],
      "name": "getAllNWayFixedModelMarkets",
      "outputs": [
        {
          "internalType": "contract PredictionMarketNWayFixedModel[]",
          "name": "",
          "type": "address[]"
        }
      ],
      "stateMutability": "view",
      "type": "function"
    },
    {
      "inputs": [
        {
          "internalType": "uint256",
          "name": "",
          "type": "uint256"
        }
      ],
      "name": "predictionMarketsNWayFixedModel",
      "outputs": [
        {
          "internalType": "contract PredictionMarketNWayFixedModel",
          "name": "",
          "type": "address"
        }
      ],
      "stateMutability": "view",
      "type": "function"
    }
  ],
  "transactionHash": "0xc7bf0b28d7fb302b66b36b72138be3a6453460dd8b766fcd5dfd7e1d5e8c7510",
  "args": [],
  "numDeployments": 1,
  "solcInputHash": "804b63f2bc9367c31a5e91fb19c5e093",
  "bytecode": "0x608060405234801561001057600080fd5b50612c3e806100206000396000f3fe60806040523480156200001157600080fd5b5060043610620000465760003560e01c8063a5f847ba146200004b578063b3c4d6c81462000081578063d67f721914620000a3575b600080fd5b6200006960048036038101906200006391906200037d565b620000d9565b6040516200007891906200043a565b60405180910390f35b6200008b62000119565b6040516200009a919062000525565b60405180910390f35b620000c16004803603810190620000bb919062000718565b620001a9565b604051620000d09190620007d0565b60405180910390f35b60008181548110620000ea57600080fd5b906000526020600020016000915054906101000a900473ffffffffffffffffffffffffffffffffffffffff1681565b606060008054806020026020016040519081016040528092919081815260200182805480156200019f57602002820191906000526020600020905b8160009054906101000a900473ffffffffffffffffffffffffffffffffffffffff1673ffffffffffffffffffffffffffffffffffffffff168152602001906001019080831162000154575b5050505050905090565b6000808686868686604051620001bf9062000320565b620001cf95949392919062000907565b604051809103906000f080158015620001ec573d6000803e3d6000fd5b5090508073ffffffffffffffffffffffffffffffffffffffff1663f2fde38b336040518263ffffffff1660e01b81526004016200022a9190620007d0565b600060405180830381600087803b1580156200024557600080fd5b505af11580156200025a573d6000803e3d6000fd5b505050506000819080600181540180825580915050600190039060005260206000200160009091909190916101000a81548173ffffffffffffffffffffffffffffffffffffffff021916908373ffffffffffffffffffffffffffffffffffffffff1602179055508073ffffffffffffffffffffffffffffffffffffffff167f8823d8d711733662c45ad94b12895afba39d891ed81078700a8c04a642fd818788886040516200030b9291906200096b565b60405180910390a28091505095945050505050565b61226980620009a083390190565b6000604051905090565b600080fd5b600080fd5b6000819050919050565b620003578162000342565b81146200036357600080fd5b50565b60008135905062000377816200034c565b92915050565b60006020828403121562000396576200039562000338565b5b6000620003a68482850162000366565b91505092915050565b600073ffffffffffffffffffffffffffffffffffffffff82169050919050565b6000819050919050565b6000620003fa620003f4620003ee84620003af565b620003cf565b620003af565b9050919050565b60006200040e82620003d9565b9050919050565b6000620004228262000401565b9050919050565b620004348162000415565b82525050565b600060208201905062000451600083018462000429565b92915050565b600081519050919050565b600082825260208201905092915050565b6000819050602082019050919050565b6200048e8162000415565b82525050565b6000620004a2838362000483565b60208301905092915050565b6000602082019050919050565b6000620004c88262000457565b620004d4818562000462565b9350620004e18362000473565b8060005b8381101562000518578151620004fc888262000494565b97506200050983620004ae565b925050600181019050620004e5565b5085935050505092915050565b60006020820190508181036000830152620005418184620004bb565b905092915050565b600080fd5b600080fd5b6000601f19601f8301169050919050565b7f4e487b7100000000000000000000000000000000000000000000000000000000600052604160045260246000fd5b6200059e8262000553565b810181811067ffffffffffffffff82111715620005c057620005bf62000564565b5b80604052505050565b6000620005d56200032e565b9050620005e3828262000593565b919050565b600067ffffffffffffffff82111562000606576200060562000564565b5b620006118262000553565b9050602081019050919050565b82818337600083830152505050565b6000620006446200063e84620005e8565b620005c9565b9050828152602081018484840111156200066357620006626200054e565b5b620006708482856200061e565b509392505050565b600082601f83011262000690576200068f62000549565b5b8135620006a28482602086016200062d565b91505092915050565b60048110620006b957600080fd5b50565b600081359050620006cd81620006ab565b92915050565b6000620006e082620003af565b9050919050565b620006f281620006d3565b8114620006fe57600080fd5b50565b6000813590506200071281620006e7565b92915050565b600080600080600060a0868803121562000737576200073662000338565b5b600086013567ffffffffffffffff8111156200075857620007576200033d565b5b620007668882890162000678565b95505060206200077988828901620006bc565b94505060406200078c8882890162000701565b93505060606200079f8882890162000701565b9250506080620007b28882890162000366565b9150509295509295909350565b620007ca81620006d3565b82525050565b6000602082019050620007e76000830184620007bf565b92915050565b600081519050919050565b600082825260208201905092915050565b60005b83811015620008295780820151818401526020810190506200080c565b60008484015250505050565b60006200084282620007ed565b6200084e8185620007f8565b93506200086081856020860162000809565b6200086b8162000553565b840191505092915050565b7f4e487b7100000000000000000000000000000000000000000000000000000000600052602160045260246000fd5b60048110620008b957620008b862000876565b5b50565b6000819050620008cc82620008a5565b919050565b6000620008de82620008bc565b9050919050565b620008f081620008d1565b82525050565b620009018162000342565b82525050565b600060a082019050818103600083015262000923818862000835565b9050620009346020830187620008e5565b620009436040830186620007bf565b620009526060830185620007bf565b620009616080830184620008f6565b9695505050505050565b6000604082019050818103600083015262000987818562000835565b9050620009986020830184620008e5565b939250505056fe60a06040523480156200001157600080fd5b506040516200226938038062002269833981810160405281019062000037919062000573565b33600073ffffffffffffffffffffffffffffffffffffffff168173ffffffffffffffffffffffffffffffffffffffff1603620000ad5760006040517f1e4fbdf7000000000000000000000000000000000000000000000000000000008152600401620000a491906200062b565b60405180910390fd5b620000be81620001e360201b60201c565b508460049081620000d0919062000889565b5083600360006101000a81548160ff02191690836003811115620000f957620000f862000970565b5b021790555082600560006101000a81548173ffffffffffffffffffffffffffffffffffffffff021916908373ffffffffffffffffffffffffffffffffffffffff1602179055508173ffffffffffffffffffffffffffffffffffffffff1660808173ffffffffffffffffffffffffffffffffffffffff16815250508067ffffffffffffffff81111562000190576200018f62000347565b5b604051908082528060200260200182016040528015620001bf5781602001602082028036833780820191505090505b5060019080519060200190620001d7929190620002a7565b5050505050506200099f565b60008060009054906101000a900473ffffffffffffffffffffffffffffffffffffffff169050816000806101000a81548173ffffffffffffffffffffffffffffffffffffffff021916908373ffffffffffffffffffffffffffffffffffffffff1602179055508173ffffffffffffffffffffffffffffffffffffffff168173ffffffffffffffffffffffffffffffffffffffff167f8be0079c531659141344cd1fd0a4f28419497f9722a3daafe3b4186f6b6457e060405160405180910390a35050565b828054828255906000526020600020908101928215620002e6579160200282015b82811115620002e5578251825591602001919060010190620002c8565b5b509050620002f59190620002f9565b5090565b5b8082111562000314576000816000905550600101620002fa565b5090565b6000604051905090565b600080fd5b600080fd5b600080fd5b600080fd5b6000601f19601f8301169050919050565b7f4e487b7100000000000000000000000000000000000000000000000000000000600052604160045260246000fd5b620003818262000336565b810181811067ffffffffffffffff82111715620003a357620003a262000347565b5b80604052505050565b6000620003b862000318565b9050620003c6828262000376565b919050565b600067ffffffffffffffff821115620003e957620003e862000347565b5b620003f48262000336565b9050602081019050919050565b60005b838110156200042157808201518184015260208101905062000404565b60008484015250505050565b6000620004446200043e84620003cb565b620003ac565b90508281526020810184848401111562000463576200046262000331565b5b6200047084828562000401565b509392505050565b600082601f83011262000490576200048f6200032c565b5b8151620004a28482602086016200042d565b91505092915050565b60048110620004b957600080fd5b50565b600081519050620004cd81620004ab565b92915050565b600073ffffffffffffffffffffffffffffffffffffffff82169050919050565b60006200050082620004d3565b9050919050565b6200051281620004f3565b81146200051e57600080fd5b50565b600081519050620005328162000507565b92915050565b6000819050919050565b6200054d8162000538565b81146200055957600080fd5b50565b6000815190506200056d8162000542565b92915050565b600080600080600060a0868803121562000592576200059162000322565b5b600086015167ffffffffffffffff811115620005b357620005b262000327565b5b620005c18882890162000478565b9550506020620005d488828901620004bc565b9450506040620005e78882890162000521565b9350506060620005fa8882890162000521565b92505060806200060d888289016200055c565b9150509295509295909350565b6200062581620004f3565b82525050565b60006020820190506200064260008301846200061a565b92915050565b600081519050919050565b7f4e487b7100000000000000000000000000000000000000000000000000000000600052602260045260246000fd5b600060028204905060018216806200069b57607f821691505b602082108103620006b157620006b062000653565b5b50919050565b60008190508160005260206000209050919050565b60006020601f8301049050919050565b600082821b905092915050565b6000600883026200071b7fffffffffffffffffffffffffffffffffffffffffffffffffffffffffffffffff82620006dc565b620007278683620006dc565b95508019841693508086168417925050509392505050565b6000819050919050565b60006200076a620007646200075e8462000538565b6200073f565b62000538565b9050919050565b6000819050919050565b620007868362000749565b6200079e620007958262000771565b848454620006e9565b825550505050565b600090565b620007b5620007a6565b620007c28184846200077b565b505050565b5b81811015620007ea57620007de600082620007ab565b600181019050620007c8565b5050565b601f82111562000839576200080381620006b7565b6200080e84620006cc565b810160208510156200081e578190505b620008366200082d85620006cc565b830182620007c7565b50505b505050565b600082821c905092915050565b60006200085e600019846008026200083e565b1980831691505092915050565b60006200087983836200084b565b9150826002028217905092915050565b620008948262000648565b67ffffffffffffffff811115620008b057620008af62000347565b5b620008bc825462000682565b620008c9828285620007ee565b600060209050601f831160018114620009015760008415620008ec578287015190505b620008f885826200086b565b86555062000968565b601f1984166200091186620006b7565b60005b828110156200093b5784890151825560018201915060208501945060208101905062000914565b868310156200095b578489015162000957601f8916826200084b565b8355505b6001600288020188555050505b505050505050565b7f4e487b7100000000000000000000000000000000000000000000000000000000600052602160045260246000fd5b608051611899620009d0600039600081816102fd0152818161064a015281816109750152610a5001526118996000f3fe608060405234801561001057600080fd5b50600436106100f55760003560e01c8063715018a6116100975780639b34ae03116100665780639b34ae031461023c578063b0e59d1d1461025a578063ef430aa614610278578063f2fde38b14610296576100f5565b8063715018a6146101da5780637365870b146101e45780637dc0d1d0146102005780638da5cb5b1461021e576100f5565b80633f6fa655116100d35780633f6fa655146101785780633fad9ae0146101965780634e71d92d146101b45780634f896d4f146101be576100f5565b806305801f0b146100fa5780630cb450a31461012a57806311eac8551461015a575b600080fd5b610114600480360381019061010f9190610e5a565b6102b2565b6040516101219190610e96565b60405180910390f35b610144600480360381019061013f9190610f0f565b6102d6565b6040516101519190610e96565b60405180910390f35b6101626102fb565b60405161016f9190610fae565b60405180910390f35b61018061031f565b60405161018d9190610fe4565b60405180910390f35b61019e610332565b6040516101ab919061108f565b60405180910390f35b6101bc6103c0565b005b6101d860048036038101906101d39190610e5a565b61073c565b005b6101e26108bf565b005b6101fe60048036038101906101f99190610e5a565b6108d3565b005b610208610bd1565b60405161021591906110c0565b60405180910390f35b610226610bf7565b60405161023391906110c0565b60405180910390f35b610244610c20565b6040516102519190610e96565b60405180910390f35b610262610c26565b60405161026f9190610e96565b60405180910390f35b610280610c33565b60405161028d9190611152565b60405180910390f35b6102b060048036038101906102ab919061116d565b610c46565b005b600181815481106102c257600080fd5b906000526020600020016000915090505481565b6002602052816000526040600020602052806000526040600020600091509150505481565b7f000000000000000000000000000000000000000000000000000000000000000081565b600560149054906101000a900460ff1681565b6004805461033f906111c9565b80601f016020809104026020016040519081016040528092919081815260200182805461036b906111c9565b80156103b85780601f1061038d576101008083540402835291602001916103b8565b820191906000526020600020905b81548152906001019060200180831161039b57829003601f168201915b505050505081565b600560149054906101000a900460ff1661040f576040517f08c379a000000000000000000000000000000000000000000000000000000000815260040161040690611246565b60405180910390fd5b600060026000600654815260200190815260200160002060003373ffffffffffffffffffffffffffffffffffffffff1673ffffffffffffffffffffffffffffffffffffffff168152602001908152602001600020549050600081116104a9576040517f08c379a00000000000000000000000000000000000000000000000000000000081526004016104a0906112b2565b60405180910390fd5b60006001600654815481106104c1576104c06112d2565b5b9060005260206000200154905060008111610511576040517f08c379a00000000000000000000000000000000000000000000000000000000081526004016105089061134d565b60405180910390fd5b6000805b60018054905081101561057357600654811461056657620f424060018281548110610543576105426112d2565b5b9060005260206000200154610558919061139c565b8261056391906113de565b91505b8080600101915050610515565b506000828483610583919061139c565b61058d9190611441565b90506000620f4240856105a0919061139c565b826105ab91906113de565b9050600060026000600654815260200190815260200160002060003373ffffffffffffffffffffffffffffffffffffffff1673ffffffffffffffffffffffffffffffffffffffff1681526020019081526020016000208190555060008111610648576040517f08c379a000000000000000000000000000000000000000000000000000000000815260040161063f906114e4565b60405180910390fd5b7f000000000000000000000000000000000000000000000000000000000000000073ffffffffffffffffffffffffffffffffffffffff1663a9059cbb33836040518363ffffffff1660e01b81526004016106a3929190611504565b6020604051808303816000875af11580156106c2573d6000803e3d6000fd5b505050506040513d601f19601f820116820180604052508101906106e69190611559565b503373ffffffffffffffffffffffffffffffffffffffff167fd8138f8a3f377c5259ca548e70e4c2de94f129f5a11036a15b69513cba2b426a8260405161072d9190610e96565b60405180910390a25050505050565b600560009054906101000a900473ffffffffffffffffffffffffffffffffffffffff1673ffffffffffffffffffffffffffffffffffffffff163373ffffffffffffffffffffffffffffffffffffffff16146107cc576040517f08c379a00000000000000000000000000000000000000000000000000000000081526004016107c3906115d2565b60405180910390fd5b600560149054906101000a900460ff161561081c576040517f08c379a00000000000000000000000000000000000000000000000000000000081526004016108139061163e565b60405180910390fd5b6001805490508110610863576040517f08c379a000000000000000000000000000000000000000000000000000000000815260040161085a906116aa565b60405180910390fd5b6001600560146101000a81548160ff021916908315150217905550806006819055507f148a25ee2a7671350ab878ff183447de8ae5afa2ee0ae7d5ee1ad6b25c4868c2816040516108b49190610e96565b60405180910390a150565b6108c7610ccc565b6108d16000610d53565b565b600560149054906101000a900460ff1615610923576040517f08c379a000000000000000000000000000000000000000000000000000000000815260040161091a9061163e565b60405180910390fd5b600180549050811061096a576040517f08c379a000000000000000000000000000000000000000000000000000000000815260040161096190611716565b60405180910390fd5b6000620f42409050807f000000000000000000000000000000000000000000000000000000000000000073ffffffffffffffffffffffffffffffffffffffff166370a08231336040518263ffffffff1660e01b81526004016109cc91906110c0565b602060405180830381865afa1580156109e9573d6000803e3d6000fd5b505050506040513d601f19601f82011682018060405250810190610a0d919061174b565b1015610a4e576040517f08c379a0000000000000000000000000000000000000000000000000000000008152600401610a45906117c4565b60405180910390fd5b7f000000000000000000000000000000000000000000000000000000000000000073ffffffffffffffffffffffffffffffffffffffff166323b872dd3330846040518463ffffffff1660e01b8152600401610aab939291906117e4565b6020604051808303816000875af1158015610aca573d6000803e3d6000fd5b505050506040513d601f19601f82011682018060405250810190610aee9190611559565b506002600083815260200190815260200160002060003373ffffffffffffffffffffffffffffffffffffffff1673ffffffffffffffffffffffffffffffffffffffff1681526020019081526020016000206000815480929190610b509061181b565b919050555060018281548110610b6957610b686112d2565b5b906000526020600020016000815480929190610b849061181b565b9190505550813373ffffffffffffffffffffffffffffffffffffffff167fc0ae20ffbb1eca06a840c35912bdb9f8e6e1fad1f028c875be0ddf54d480d71e60405160405180910390a35050565b600560009054906101000a900473ffffffffffffffffffffffffffffffffffffffff1681565b60008060009054906101000a900473ffffffffffffffffffffffffffffffffffffffff16905090565b60065481565b6000600180549050905090565b600360009054906101000a900460ff1681565b610c4e610ccc565b600073ffffffffffffffffffffffffffffffffffffffff168173ffffffffffffffffffffffffffffffffffffffff1603610cc05760006040517f1e4fbdf7000000000000000000000000000000000000000000000000000000008152600401610cb791906110c0565b60405180910390fd5b610cc981610d53565b50565b610cd4610e17565b73ffffffffffffffffffffffffffffffffffffffff16610cf2610bf7565b73ffffffffffffffffffffffffffffffffffffffff1614610d5157610d15610e17565b6040517f118cdaa7000000000000000000000000000000000000000000000000000000008152600401610d4891906110c0565b60405180910390fd5b565b60008060009054906101000a900473ffffffffffffffffffffffffffffffffffffffff169050816000806101000a81548173ffffffffffffffffffffffffffffffffffffffff021916908373ffffffffffffffffffffffffffffffffffffffff1602179055508173ffffffffffffffffffffffffffffffffffffffff168173ffffffffffffffffffffffffffffffffffffffff167f8be0079c531659141344cd1fd0a4f28419497f9722a3daafe3b4186f6b6457e060405160405180910390a35050565b600033905090565b600080fd5b6000819050919050565b610e3781610e24565b8114610e4257600080fd5b50565b600081359050610e5481610e2e565b92915050565b600060208284031215610e7057610e6f610e1f565b5b6000610e7e84828501610e45565b91505092915050565b610e9081610e24565b82525050565b6000602082019050610eab6000830184610e87565b92915050565b600073ffffffffffffffffffffffffffffffffffffffff82169050919050565b6000610edc82610eb1565b9050919050565b610eec81610ed1565b8114610ef757600080fd5b50565b600081359050610f0981610ee3565b92915050565b60008060408385031215610f2657610f25610e1f565b5b6000610f3485828601610e45565b9250506020610f4585828601610efa565b9150509250929050565b6000819050919050565b6000610f74610f6f610f6a84610eb1565b610f4f565b610eb1565b9050919050565b6000610f8682610f59565b9050919050565b6000610f9882610f7b565b9050919050565b610fa881610f8d565b82525050565b6000602082019050610fc36000830184610f9f565b92915050565b60008115159050919050565b610fde81610fc9565b82525050565b6000602082019050610ff96000830184610fd5565b92915050565b600081519050919050565b600082825260208201905092915050565b60005b8381101561103957808201518184015260208101905061101e565b60008484015250505050565b6000601f19601f8301169050919050565b600061106182610fff565b61106b818561100a565b935061107b81856020860161101b565b61108481611045565b840191505092915050565b600060208201905081810360008301526110a98184611056565b905092915050565b6110ba81610ed1565b82525050565b60006020820190506110d560008301846110b1565b92915050565b7f4e487b7100000000000000000000000000000000000000000000000000000000600052602160045260246000fd5b6004811061111b5761111a6110db565b5b50565b600081905061112c8261110a565b919050565b600061113c8261111e565b9050919050565b61114c81611131565b82525050565b60006020820190506111676000830184611143565b92915050565b60006020828403121561118357611182610e1f565b5b600061119184828501610efa565b91505092915050565b7f4e487b7100000000000000000000000000000000000000000000000000000000600052602260045260246000fd5b600060028204905060018216806111e157607f821691505b6020821081036111f4576111f361119a565b5b50919050565b7f4d61726b6574206973206e6f74207265736f6c76656420796574000000000000600082015250565b6000611230601a8361100a565b915061123b826111fa565b602082019050919050565b6000602082019050818103600083015261125f81611223565b9050919050565b7f4e6f2077696e6e696e677320746f20636c61696d000000000000000000000000600082015250565b600061129c60148361100a565b91506112a782611266565b602082019050919050565b600060208201905081810360008301526112cb8161128f565b9050919050565b7f4e487b7100000000000000000000000000000000000000000000000000000000600052603260045260246000fd5b7f4e6f2077696e6e696e6720626574732077657265206d61646500000000000000600082015250565b600061133760198361100a565b915061134282611301565b602082019050919050565b600060208201905081810360008301526113668161132a565b9050919050565b7f4e487b7100000000000000000000000000000000000000000000000000000000600052601160045260246000fd5b60006113a782610e24565b91506113b283610e24565b92508282026113c081610e24565b915082820484148315176113d7576113d661136d565b5b5092915050565b60006113e982610e24565b91506113f483610e24565b925082820190508082111561140c5761140b61136d565b5b92915050565b7f4e487b7100000000000000000000000000000000000000000000000000000000600052601260045260246000fd5b600061144c82610e24565b915061145783610e24565b92508261146757611466611412565b5b828204905092915050565b7f57696e6e696e6773206d7573742062652067726561746572207468616e207a6560008201527f726f000000000000000000000000000000000000000000000000000000000000602082015250565b60006114ce60228361100a565b91506114d982611472565b604082019050919050565b600060208201905081810360008301526114fd816114c1565b9050919050565b600060408201905061151960008301856110b1565b6115266020830184610e87565b9392505050565b61153681610fc9565b811461154157600080fd5b50565b6000815190506115538161152d565b92915050565b60006020828403121561156f5761156e610e1f565b5b600061157d84828501611544565b91505092915050565b7f4f6e6c79206f7261636c652063616e207265736f6c7665000000000000000000600082015250565b60006115bc60178361100a565b91506115c782611586565b602082019050919050565b600060208201905081810360008301526115eb816115af565b9050919050565b7f4d61726b657420697320616c7265616479207265736f6c766564000000000000600082015250565b6000611628601a8361100a565b9150611633826115f2565b602082019050919050565b600060208201905081810360008301526116578161161b565b9050919050565b7f496e76616c6964206f7574636f6d650000000000000000000000000000000000600082015250565b6000611694600f8361100a565b915061169f8261165e565b602082019050919050565b600060208201905081810360008301526116c381611687565b9050919050565b7f496e76616c6964206f7574636f6d6520696e6465780000000000000000000000600082015250565b600061170060158361100a565b915061170b826116ca565b602082019050919050565b6000602082019050818103600083015261172f816116f3565b9050919050565b60008151905061174581610e2e565b92915050565b60006020828403121561176157611760610e1f565b5b600061176f84828501611736565b91505092915050565b7f496e73756666696369656e7420555344432062616c616e636500000000000000600082015250565b60006117ae60198361100a565b91506117b982611778565b602082019050919050565b600060208201905081810360008301526117dd816117a1565b9050919050565b60006060820190506117f960008301866110b1565b61180660208301856110b1565b6118136040830184610e87565b949350505050565b600061182682610e24565b91507fffffffffffffffffffffffffffffffffffffffffffffffffffffffffffffffff82036118585761185761136d565b5b60018201905091905056fea2646970667358221220b934e722fa36256977ddae8c68c325c82bd6cfa3319e93a6cde0aa484c915c4c64736f6c63430008180033a2646970667358221220af26adebc3798ba599c7da6f2140d4a38d1e3fe3c4690f29ee66fcee7459301364736f6c63430008180033",
  "devdoc": {
    "kind": "dev",
    "methods": {},
    "version": 1
  },
  "userdoc": {
    "kind": "user",
    "methods": {},
    "version": 1
  },
  "storageLayout": {
    "storage": [
      {
        "astId": 1919,
        "contract": "contracts/PredictionMarketFactoryNWayFixedModel.sol:PredictionMarketFactoryNWayFixedModel",
        "label": "predictionMarketsNWayFixedModel",
        "offset": 0,
        "slot": "0",
        "type": "t_array(t_contract(PredictionMarketNWayFixedModel)3070)dyn_storage"
      }
    ],
    "types": {
      "t_array(t_contract(PredictionMarketNWayFixedModel)3070)dyn_storage": {
        "base": "t_contract(PredictionMarketNWayFixedModel)3070",
        "encoding": "dynamic_array",
        "label": "contract PredictionMarketNWayFixedModel[]",
        "numberOfBytes": "32"
      },
      "t_contract(PredictionMarketNWayFixedModel)3070": {
        "encoding": "inplace",
        "label": "contract PredictionMarketNWayFixedModel",
        "numberOfBytes": "20"
      }
    }
  }
}