{
  "address": "0xf0014CBe67b3aB638bdaA2e2Cb1B531935829E50",
  "abi": [
    {
      "anonymous": false,
      "inputs": [
        {
          "indexed": true,
          "internalType": "address",
          "name": "user",
          "type": "address"
        },
        {
          "indexed": true,
          "internalType": "address",
          "name": "marketAddress",
          "type": "address"
        },
        {
          "indexed": false,
          "internalType": "uint256",
          "name": "amount",
          "type": "uint256"
        },
        {
          "indexed": false,
          "internalType": "bool",
          "name": "onYes",
          "type": "bool"
        }
      ],
      "name": "BetPlaced",
      "type": "event"
    },
    {
      "anonymous": false,
      "inputs": [
        {
          "indexed": true,
          "internalType": "address",
          "name": "marketAddress",
          "type": "address"
        },
        {
          "indexed": false,
          "internalType": "string",
          "name": "question",
          "type": "string"
        },
        {
          "indexed": false,
          "internalType": "enum PredictionMarket.Category",
          "name": "category",
          "type": "uint8"
        }
      ],
      "name": "MarketCreated",
      "type": "event"
    },
    {
      "inputs": [
        {
          "internalType": "string",
          "name": "_question",
          "type": "string"
        },
        {
          "internalType": "enum PredictionMarket.Category",
          "name": "_category",
          "type": "uint8"
        },
        {
          "internalType": "address",
          "name": "_oracle",
          "type": "address"
        },
        {
          "internalType": "address",
          "name": "_usdcToken",
          "type": "address"
        },
        {
          "internalType": "string",
          "name": "_yesTokenName",
          "type": "string"
        },
        {
          "internalType": "string",
          "name": "_yesTokenSymbol",
          "type": "string"
        },
        {
          "internalType": "string",
          "name": "_noTokenName",
          "type": "string"
        },
        {
          "internalType": "string",
          "name": "_noTokenSymbol",
          "type": "string"
        },
        {
          "internalType": "uint256",
          "name": "_initialLiquidity",
          "type": "uint256"
        }
      ],
      "name": "createMarket",
      "outputs": [
        {
          "internalType": "address",
          "name": "",
          "type": "address"
        }
      ],
      "stateMutability": "nonpayable",
      "type": "function"
    },
    {
      "inputs": [],
      "name": "getAllMarkets",
      "outputs": [
        {
          "internalType": "contract PredictionMarket[]",
          "name": "",
          "type": "address[]"
        }
      ],
      "stateMutability": "view",
      "type": "function"
    },
    {
      "inputs": [
        {
          "internalType": "enum PredictionMarket.Category",
          "name": "_category",
          "type": "uint8"
        }
      ],
      "name": "getMarketsByCategory",
      "outputs": [
        {
          "internalType": "contract PredictionMarket[]",
          "name": "",
          "type": "address[]"
        }
      ],
      "stateMutability": "view",
      "type": "function"
    },
    {
      "inputs": [
        {
          "internalType": "uint256",
          "name": "",
          "type": "uint256"
        }
      ],
      "name": "predictionMarkets",
      "outputs": [
        {
          "internalType": "contract PredictionMarket",
          "name": "",
          "type": "address"
        }
      ],
      "stateMutability": "view",
      "type": "function"
    }
  ],
  "transactionHash": "0x9cec4ae17ac9de0b373375da6ade775b65c9c80cd5436a5f47582fa0ad7fcebc",
  "args": [],
  "numDeployments": 1,
  "solcInputHash": "804b63f2bc9367c31a5e91fb19c5e093",
  "bytecode": "0x608060405234801561001057600080fd5b50615753806100206000396000f3fe60806040523480156200001157600080fd5b5060043610620000525760003560e01c8063867fbf5f1462000057578063b0772d0b146200008d578063b54d632a14620000af578063d103da9e14620000e5575b600080fd5b6200007560048036038101906200006f9190620008bc565b6200011b565b60405162000084919062000979565b60405180910390f35b620000976200015b565b604051620000a6919062000a64565b60405180910390f35b620000cd6004803603810190620000c7919062000ab0565b620001eb565b604051620000dc919062000a64565b60405180910390f35b620001036004803603810190620000fd919062000c89565b62000507565b60405162000112919062000e14565b60405180910390f35b600081815481106200012c57600080fd5b906000526020600020016000915054906101000a900473ffffffffffffffffffffffffffffffffffffffff1681565b60606000805480602002602001604051908101604052809291908181526020018280548015620001e157602002820191906000526020600020905b8160009054906101000a900473ffffffffffffffffffffffffffffffffffffffff1673ffffffffffffffffffffffffffffffffffffffff168152602001906001019080831162000196575b5050505050905090565b60606000805b600080549050811015620003025783600381111562000215576200021462000e31565b5b600082815481106200022c576200022b62000e60565b5b9060005260206000200160009054906101000a900473ffffffffffffffffffffffffffffffffffffffff1673ffffffffffffffffffffffffffffffffffffffff1663ef430aa66040518163ffffffff1660e01b8152600401602060405180830381865afa158015620002a2573d6000803e3d6000fd5b505050506040513d601f19601f82011682018060405250810190620002c8919062000ea6565b6003811115620002dd57620002dc62000e31565b5b03620002f4578180620002f09062000f07565b9250505b8080600101915050620001f1565b5060008167ffffffffffffffff81111562000322576200032162000afd565b5b604051908082528060200260200182016040528015620003515781602001602082028036833780820191505090505b5090506000805b600080549050811015620004fb578560038111156200037c576200037b62000e31565b5b6000828154811062000393576200039262000e60565b5b9060005260206000200160009054906101000a900473ffffffffffffffffffffffffffffffffffffffff1673ffffffffffffffffffffffffffffffffffffffff1663ef430aa66040518163ffffffff1660e01b8152600401602060405180830381865afa15801562000409573d6000803e3d6000fd5b505050506040513d601f19601f820116820180604052508101906200042f919062000ea6565b600381111562000444576200044362000e31565b5b03620004ed576000818154811062000461576200046062000e60565b5b9060005260206000200160009054906101000a900473ffffffffffffffffffffffffffffffffffffffff16838381518110620004a257620004a162000e60565b5b602002602001019073ffffffffffffffffffffffffffffffffffffffff16908173ffffffffffffffffffffffffffffffffffffffff16815250508180620004e99062000f07565b9250505b808060010191505062000358565b50819350505050919050565b60008086866040516200051a9062000851565b6200052792919062000fdd565b604051809103906000f08015801562000544573d6000803e3d6000fd5b50905060008585604051620005599062000851565b6200056692919062000fdd565b604051809103906000f08015801562000583573d6000803e3d6000fd5b50905060008c8c8c8c86866040516200059c906200085f565b620005ad9695949392919062001069565b604051809103906000f080158015620005ca573d6000803e3d6000fd5b5090508273ffffffffffffffffffffffffffffffffffffffff1663f2fde38b826040518263ffffffff1660e01b815260040162000608919062000e14565b600060405180830381600087803b1580156200062357600080fd5b505af115801562000638573d6000803e3d6000fd5b505050508173ffffffffffffffffffffffffffffffffffffffff1663f2fde38b826040518263ffffffff1660e01b815260040162000677919062000e14565b600060405180830381600087803b1580156200069257600080fd5b505af1158015620006a7573d6000803e3d6000fd5b505050508073ffffffffffffffffffffffffffffffffffffffff1663fe4b84df866040518263ffffffff1660e01b8152600401620006e69190620010ee565b600060405180830381600087803b1580156200070157600080fd5b505af115801562000716573d6000803e3d6000fd5b505050508073ffffffffffffffffffffffffffffffffffffffff1663f2fde38b336040518263ffffffff1660e01b815260040162000755919062000e14565b600060405180830381600087803b1580156200077057600080fd5b505af115801562000785573d6000803e3d6000fd5b505050506000819080600181540180825580915050600190039060005260206000200160009091909190916101000a81548173ffffffffffffffffffffffffffffffffffffffff021916908373ffffffffffffffffffffffffffffffffffffffff1602179055508073ffffffffffffffffffffffffffffffffffffffff167fec53f72194f2c9b11786f4942461831134f3b6d455d31bfbdb585038b38af4358e8e604051620008369291906200110b565b60405180910390a28093505050509998505050505050505050565b61190c806200114083390190565b612cd28062002a4c83390190565b6000604051905090565b600080fd5b600080fd5b6000819050919050565b620008968162000881565b8114620008a257600080fd5b50565b600081359050620008b6816200088b565b92915050565b600060208284031215620008d557620008d462000877565b5b6000620008e584828501620008a5565b91505092915050565b600073ffffffffffffffffffffffffffffffffffffffff82169050919050565b6000819050919050565b600062000939620009336200092d84620008ee565b6200090e565b620008ee565b9050919050565b60006200094d8262000918565b9050919050565b6000620009618262000940565b9050919050565b620009738162000954565b82525050565b600060208201905062000990600083018462000968565b92915050565b600081519050919050565b600082825260208201905092915050565b6000819050602082019050919050565b620009cd8162000954565b82525050565b6000620009e18383620009c2565b60208301905092915050565b6000602082019050919050565b600062000a078262000996565b62000a138185620009a1565b935062000a2083620009b2565b8060005b8381101562000a5757815162000a3b8882620009d3565b975062000a4883620009ed565b92505060018101905062000a24565b5085935050505092915050565b6000602082019050818103600083015262000a808184620009fa565b905092915050565b6004811062000a9657600080fd5b50565b60008135905062000aaa8162000a88565b92915050565b60006020828403121562000ac95762000ac862000877565b5b600062000ad98482850162000a99565b91505092915050565b600080fd5b600080fd5b6000601f19601f8301169050919050565b7f4e487b7100000000000000000000000000000000000000000000000000000000600052604160045260246000fd5b62000b378262000aec565b810181811067ffffffffffffffff8211171562000b595762000b5862000afd565b5b80604052505050565b600062000b6e6200086d565b905062000b7c828262000b2c565b919050565b600067ffffffffffffffff82111562000b9f5762000b9e62000afd565b5b62000baa8262000aec565b9050602081019050919050565b82818337600083830152505050565b600062000bdd62000bd78462000b81565b62000b62565b90508281526020810184848401111562000bfc5762000bfb62000ae7565b5b62000c0984828562000bb7565b509392505050565b600082601f83011262000c295762000c2862000ae2565b5b813562000c3b84826020860162000bc6565b91505092915050565b600062000c5182620008ee565b9050919050565b62000c638162000c44565b811462000c6f57600080fd5b50565b60008135905062000c838162000c58565b92915050565b60008060008060008060008060006101208a8c03121562000caf5762000cae62000877565b5b60008a013567ffffffffffffffff81111562000cd05762000ccf6200087c565b5b62000cde8c828d0162000c11565b995050602062000cf18c828d0162000a99565b985050604062000d048c828d0162000c72565b975050606062000d178c828d0162000c72565b96505060808a013567ffffffffffffffff81111562000d3b5762000d3a6200087c565b5b62000d498c828d0162000c11565b95505060a08a013567ffffffffffffffff81111562000d6d5762000d6c6200087c565b5b62000d7b8c828d0162000c11565b94505060c08a013567ffffffffffffffff81111562000d9f5762000d9e6200087c565b5b62000dad8c828d0162000c11565b93505060e08a013567ffffffffffffffff81111562000dd15762000dd06200087c565b5b62000ddf8c828d0162000c11565b92505061010062000df38c828d01620008a5565b9150509295985092959850929598565b62000e0e8162000c44565b82525050565b600060208201905062000e2b600083018462000e03565b92915050565b7f4e487b7100000000000000000000000000000000000000000000000000000000600052602160045260246000fd5b7f4e487b7100000000000000000000000000000000000000000000000000000000600052603260045260246000fd5b60008151905062000ea08162000a88565b92915050565b60006020828403121562000ebf5762000ebe62000877565b5b600062000ecf8482850162000e8f565b91505092915050565b7f4e487b7100000000000000000000000000000000000000000000000000000000600052601160045260246000fd5b600062000f148262000881565b91507fffffffffffffffffffffffffffffffffffffffffffffffffffffffffffffffff820362000f495762000f4862000ed8565b5b600182019050919050565b600081519050919050565b600082825260208201905092915050565b60005b8381101562000f9057808201518184015260208101905062000f73565b60008484015250505050565b600062000fa98262000f54565b62000fb5818562000f5f565b935062000fc781856020860162000f70565b62000fd28162000aec565b840191505092915050565b6000604082019050818103600083015262000ff9818562000f9c565b905081810360208301526200100f818462000f9c565b90509392505050565b600481106200102c576200102b62000e31565b5b50565b60008190506200103f8262001018565b919050565b600062001051826200102f565b9050919050565b620010638162001044565b82525050565b600060c082019050818103600083015262001085818962000f9c565b905062001096602083018862001058565b620010a5604083018762000e03565b620010b4606083018662000e03565b620010c3608083018562000e03565b620010d260a083018462000e03565b979650505050505050565b620010e88162000881565b82525050565b6000602082019050620011056000830184620010dd565b92915050565b6000604082019050818103600083015262001127818562000f9c565b905062001138602083018462001058565b939250505056fe60806040523480156200001157600080fd5b506040516200190c3803806200190c833981810160405281019062000037919062000348565b33828281600390816200004b919062000618565b5080600490816200005d919062000618565b505050600073ffffffffffffffffffffffffffffffffffffffff168173ffffffffffffffffffffffffffffffffffffffff1603620000d55760006040517f1e4fbdf7000000000000000000000000000000000000000000000000000000008152600401620000cc919062000744565b60405180910390fd5b620000e681620000ef60201b60201c565b50505062000761565b6000600560009054906101000a900473ffffffffffffffffffffffffffffffffffffffff16905081600560006101000a81548173ffffffffffffffffffffffffffffffffffffffff021916908373ffffffffffffffffffffffffffffffffffffffff1602179055508173ffffffffffffffffffffffffffffffffffffffff168173ffffffffffffffffffffffffffffffffffffffff167f8be0079c531659141344cd1fd0a4f28419497f9722a3daafe3b4186f6b6457e060405160405180910390a35050565b6000604051905090565b600080fd5b600080fd5b600080fd5b600080fd5b6000601f19601f8301169050919050565b7f4e487b7100000000000000000000000000000000000000000000000000000000600052604160045260246000fd5b6200021e82620001d3565b810181811067ffffffffffffffff8211171562000240576200023f620001e4565b5b80604052505050565b600062000255620001b5565b905062000263828262000213565b919050565b600067ffffffffffffffff821115620002865762000285620001e4565b5b6200029182620001d3565b9050602081019050919050565b60005b83811015620002be578082015181840152602081019050620002a1565b60008484015250505050565b6000620002e1620002db8462000268565b62000249565b9050828152602081018484840111156200030057620002ff620001ce565b5b6200030d8482856200029e565b509392505050565b600082601f8301126200032d576200032c620001c9565b5b81516200033f848260208601620002ca565b91505092915050565b60008060408385031215620003625762000361620001bf565b5b600083015167ffffffffffffffff811115620003835762000382620001c4565b5b620003918582860162000315565b925050602083015167ffffffffffffffff811115620003b557620003b4620001c4565b5b620003c38582860162000315565b9150509250929050565b600081519050919050565b7f4e487b7100000000000000000000000000000000000000000000000000000000600052602260045260246000fd5b600060028204905060018216806200042057607f821691505b602082108103620004365762000435620003d8565b5b50919050565b60008190508160005260206000209050919050565b60006020601f8301049050919050565b600082821b905092915050565b600060088302620004a07fffffffffffffffffffffffffffffffffffffffffffffffffffffffffffffffff8262000461565b620004ac868362000461565b95508019841693508086168417925050509392505050565b6000819050919050565b6000819050919050565b6000620004f9620004f3620004ed84620004c4565b620004ce565b620004c4565b9050919050565b6000819050919050565b6200051583620004d8565b6200052d620005248262000500565b8484546200046e565b825550505050565b600090565b6200054462000535565b620005518184846200050a565b505050565b5b8181101562000579576200056d6000826200053a565b60018101905062000557565b5050565b601f821115620005c85762000592816200043c565b6200059d8462000451565b81016020851015620005ad578190505b620005c5620005bc8562000451565b83018262000556565b50505b505050565b600082821c905092915050565b6000620005ed60001984600802620005cd565b1980831691505092915050565b6000620006088383620005da565b9150826002028217905092915050565b6200062382620003cd565b67ffffffffffffffff8111156200063f576200063e620001e4565b5b6200064b825462000407565b620006588282856200057d565b600060209050601f8311600181146200069057600084156200067b578287015190505b620006878582620005fa565b865550620006f7565b601f198416620006a0866200043c565b60005b82811015620006ca57848901518255600182019150602085019450602081019050620006a3565b86831015620006ea5784890151620006e6601f891682620005da565b8355505b6001600288020188555050505b505050505050565b600073ffffffffffffffffffffffffffffffffffffffff82169050919050565b60006200072c82620006ff565b9050919050565b6200073e816200071f565b82525050565b60006020820190506200075b600083018462000733565b92915050565b61119b80620007716000396000f3fe608060405234801561001057600080fd5b50600436106100cf5760003560e01c806370a082311161008c57806395d89b411161006657806395d89b4114610202578063a9059cbb14610220578063dd62ed3e14610250578063f2fde38b14610280576100cf565b806370a08231146101aa578063715018a6146101da5780638da5cb5b146101e4576100cf565b806306fdde03146100d4578063095ea7b3146100f257806318160ddd1461012257806323b872dd14610140578063313ce5671461017057806340c10f191461018e575b600080fd5b6100dc61029c565b6040516100e99190610def565b60405180910390f35b61010c60048036038101906101079190610eaa565b61032e565b6040516101199190610f05565b60405180910390f35b61012a610351565b6040516101379190610f2f565b60405180910390f35b61015a60048036038101906101559190610f4a565b61035b565b6040516101679190610f05565b60405180910390f35b61017861038a565b6040516101859190610fb9565b60405180910390f35b6101a860048036038101906101a39190610eaa565b610393565b005b6101c460048036038101906101bf9190610fd4565b6103a9565b6040516101d19190610f2f565b60405180910390f35b6101e26103f1565b005b6101ec610405565b6040516101f99190611010565b60405180910390f35b61020a61042f565b6040516102179190610def565b60405180910390f35b61023a60048036038101906102359190610eaa565b6104c1565b6040516102479190610f05565b60405180910390f35b61026a6004803603810190610265919061102b565b6104e4565b6040516102779190610f2f565b60405180910390f35b61029a60048036038101906102959190610fd4565b61056b565b005b6060600380546102ab9061109a565b80601f01602080910402602001604051908101604052809291908181526020018280546102d79061109a565b80156103245780601f106102f957610100808354040283529160200191610324565b820191906000526020600020905b81548152906001019060200180831161030757829003601f168201915b5050505050905090565b6000806103396105f1565b90506103468185856105f9565b600191505092915050565b6000600254905090565b6000806103666105f1565b905061037385828561060b565b61037e8585856106a0565b60019150509392505050565b60006006905090565b61039b610794565b6103a5828261081b565b5050565b60008060008373ffffffffffffffffffffffffffffffffffffffff1673ffffffffffffffffffffffffffffffffffffffff168152602001908152602001600020549050919050565b6103f9610794565b610403600061089d565b565b6000600560009054906101000a900473ffffffffffffffffffffffffffffffffffffffff16905090565b60606004805461043e9061109a565b80601f016020809104026020016040519081016040528092919081815260200182805461046a9061109a565b80156104b75780601f1061048c576101008083540402835291602001916104b7565b820191906000526020600020905b81548152906001019060200180831161049a57829003601f168201915b5050505050905090565b6000806104cc6105f1565b90506104d98185856106a0565b600191505092915050565b6000600160008473ffffffffffffffffffffffffffffffffffffffff1673ffffffffffffffffffffffffffffffffffffffff16815260200190815260200160002060008373ffffffffffffffffffffffffffffffffffffffff1673ffffffffffffffffffffffffffffffffffffffff16815260200190815260200160002054905092915050565b610573610794565b600073ffffffffffffffffffffffffffffffffffffffff168173ffffffffffffffffffffffffffffffffffffffff16036105e55760006040517f1e4fbdf70000000000000000000000000000000000000000000000000000000081526004016105dc9190611010565b60405180910390fd5b6105ee8161089d565b50565b600033905090565b6106068383836001610963565b505050565b600061061784846104e4565b90507fffffffffffffffffffffffffffffffffffffffffffffffffffffffffffffffff81101561069a578181101561068a578281836040517ffb8f41b2000000000000000000000000000000000000000000000000000000008152600401610681939291906110cb565b60405180910390fd5b61069984848484036000610963565b5b50505050565b600073ffffffffffffffffffffffffffffffffffffffff168373ffffffffffffffffffffffffffffffffffffffff16036107125760006040517f96c6fd1e0000000000000000000000000000000000000000000000000000000081526004016107099190611010565b60405180910390fd5b600073ffffffffffffffffffffffffffffffffffffffff168273ffffffffffffffffffffffffffffffffffffffff16036107845760006040517fec442f0500000000000000000000000000000000000000000000000000000000815260040161077b9190611010565b60405180910390fd5b61078f838383610b3a565b505050565b61079c6105f1565b73ffffffffffffffffffffffffffffffffffffffff166107ba610405565b73ffffffffffffffffffffffffffffffffffffffff1614610819576107dd6105f1565b6040517f118cdaa70000000000000000000000000000000000000000000000000000000081526004016108109190611010565b60405180910390fd5b565b600073ffffffffffffffffffffffffffffffffffffffff168273ffffffffffffffffffffffffffffffffffffffff160361088d5760006040517fec442f050000000000000000000000000000000000000000000000000000000081526004016108849190611010565b60405180910390fd5b61089960008383610b3a565b5050565b6000600560009054906101000a900473ffffffffffffffffffffffffffffffffffffffff16905081600560006101000a81548173ffffffffffffffffffffffffffffffffffffffff021916908373ffffffffffffffffffffffffffffffffffffffff1602179055508173ffffffffffffffffffffffffffffffffffffffff168173ffffffffffffffffffffffffffffffffffffffff167f8be0079c531659141344cd1fd0a4f28419497f9722a3daafe3b4186f6b6457e060405160405180910390a35050565b600073ffffffffffffffffffffffffffffffffffffffff168473ffffffffffffffffffffffffffffffffffffffff16036109d55760006040517fe602df050000000000000000000000000000000000000000000000000000000081526004016109cc9190611010565b60405180910390fd5b600073ffffffffffffffffffffffffffffffffffffffff168373ffffffffffffffffffffffffffffffffffffffff1603610a475760006040517f94280d62000000000000000000000000000000000000000000000000000000008152600401610a3e9190611010565b60405180910390fd5b81600160008673ffffffffffffffffffffffffffffffffffffffff1673ffffffffffffffffffffffffffffffffffffffff16815260200190815260200160002060008573ffffffffffffffffffffffffffffffffffffffff1673ffffffffffffffffffffffffffffffffffffffff168152602001908152602001600020819055508015610b34578273ffffffffffffffffffffffffffffffffffffffff168473ffffffffffffffffffffffffffffffffffffffff167f8c5be1e5ebec7d5bd14f71427d1e84f3dd0314c0f7b2291e5b200ac8c7c3b92584604051610b2b9190610f2f565b60405180910390a35b50505050565b600073ffffffffffffffffffffffffffffffffffffffff168373ffffffffffffffffffffffffffffffffffffffff1603610b8c578060026000828254610b809190611131565b92505081905550610c5f565b60008060008573ffffffffffffffffffffffffffffffffffffffff1673ffffffffffffffffffffffffffffffffffffffff16815260200190815260200160002054905081811015610c18578381836040517fe450d38c000000000000000000000000000000000000000000000000000000008152600401610c0f939291906110cb565b60405180910390fd5b8181036000808673ffffffffffffffffffffffffffffffffffffffff1673ffffffffffffffffffffffffffffffffffffffff16815260200190815260200160002081905550505b600073ffffffffffffffffffffffffffffffffffffffff168273ffffffffffffffffffffffffffffffffffffffff1603610ca85780600260008282540392505081905550610cf5565b806000808473ffffffffffffffffffffffffffffffffffffffff1673ffffffffffffffffffffffffffffffffffffffff168152602001908152602001600020600082825401925050819055505b8173ffffffffffffffffffffffffffffffffffffffff168373ffffffffffffffffffffffffffffffffffffffff167fddf252ad1be2c89b69c2b068fc378daa952ba7f163c4a11628f55a4df523b3ef83604051610d529190610f2f565b60405180910390a3505050565b600081519050919050565b600082825260208201905092915050565b60005b83811015610d99578082015181840152602081019050610d7e565b60008484015250505050565b6000601f19601f8301169050919050565b6000610dc182610d5f565b610dcb8185610d6a565b9350610ddb818560208601610d7b565b610de481610da5565b840191505092915050565b60006020820190508181036000830152610e098184610db6565b905092915050565b600080fd5b600073ffffffffffffffffffffffffffffffffffffffff82169050919050565b6000610e4182610e16565b9050919050565b610e5181610e36565b8114610e5c57600080fd5b50565b600081359050610e6e81610e48565b92915050565b6000819050919050565b610e8781610e74565b8114610e9257600080fd5b50565b600081359050610ea481610e7e565b92915050565b60008060408385031215610ec157610ec0610e11565b5b6000610ecf85828601610e5f565b9250506020610ee085828601610e95565b9150509250929050565b60008115159050919050565b610eff81610eea565b82525050565b6000602082019050610f1a6000830184610ef6565b92915050565b610f2981610e74565b82525050565b6000602082019050610f446000830184610f20565b92915050565b600080600060608486031215610f6357610f62610e11565b5b6000610f7186828701610e5f565b9350506020610f8286828701610e5f565b9250506040610f9386828701610e95565b9150509250925092565b600060ff82169050919050565b610fb381610f9d565b82525050565b6000602082019050610fce6000830184610faa565b92915050565b600060208284031215610fea57610fe9610e11565b5b6000610ff884828501610e5f565b91505092915050565b61100a81610e36565b82525050565b60006020820190506110256000830184611001565b92915050565b6000806040838503121561104257611041610e11565b5b600061105085828601610e5f565b925050602061106185828601610e5f565b9150509250929050565b7f4e487b7100000000000000000000000000000000000000000000000000000000600052602260045260246000fd5b600060028204905060018216806110b257607f821691505b6020821081036110c5576110c461106b565b5b50919050565b60006060820190506110e06000830186611001565b6110ed6020830185610f20565b6110fa6040830184610f20565b949350505050565b7f4e487b7100000000000000000000000000000000000000000000000000000000600052601160045260246000fd5b600061113c82610e74565b915061114783610e74565b925082820190508082111561115f5761115e611102565b5b9291505056fea264697066735822122052bd3f11231c4bd8265abe87132c6672d718934d60e78f5281093ac60ef1023264736f6c6343000818003360e06040523480156200001157600080fd5b5060405162002cd238038062002cd28339818101604052810190620000379190620004cb565b33600073ffffffffffffffffffffffffffffffffffffffff168173ffffffffffffffffffffffffffffffffffffffff1603620000ad5760006040517f1e4fbdf7000000000000000000000000000000000000000000000000000000008152600401620000a4919062000597565b60405180910390fd5b620000be81620001e760201b60201c565b508560039081620000d09190620007ff565b5084600260016101000a81548160ff02191690836003811115620000f957620000f8620008e6565b5b021790555083600460006101000a81548173ffffffffffffffffffffffffffffffffffffffff021916908373ffffffffffffffffffffffffffffffffffffffff1602179055508273ffffffffffffffffffffffffffffffffffffffff1660808173ffffffffffffffffffffffffffffffffffffffff16815250508173ffffffffffffffffffffffffffffffffffffffff1660a08173ffffffffffffffffffffffffffffffffffffffff16815250508073ffffffffffffffffffffffffffffffffffffffff1660c08173ffffffffffffffffffffffffffffffffffffffff168152505050505050505062000915565b60008060009054906101000a900473ffffffffffffffffffffffffffffffffffffffff169050816000806101000a81548173ffffffffffffffffffffffffffffffffffffffff021916908373ffffffffffffffffffffffffffffffffffffffff1602179055508173ffffffffffffffffffffffffffffffffffffffff168173ffffffffffffffffffffffffffffffffffffffff167f8be0079c531659141344cd1fd0a4f28419497f9722a3daafe3b4186f6b6457e060405160405180910390a35050565b6000604051905090565b600080fd5b600080fd5b600080fd5b600080fd5b6000601f19601f8301169050919050565b7f4e487b7100000000000000000000000000000000000000000000000000000000600052604160045260246000fd5b6200031482620002c9565b810181811067ffffffffffffffff82111715620003365762000335620002da565b5b80604052505050565b60006200034b620002ab565b905062000359828262000309565b919050565b600067ffffffffffffffff8211156200037c576200037b620002da565b5b6200038782620002c9565b9050602081019050919050565b60005b83811015620003b457808201518184015260208101905062000397565b60008484015250505050565b6000620003d7620003d1846200035e565b6200033f565b905082815260208101848484011115620003f657620003f5620002c4565b5b6200040384828562000394565b509392505050565b600082601f830112620004235762000422620002bf565b5b815162000435848260208601620003c0565b91505092915050565b600481106200044c57600080fd5b50565b60008151905062000460816200043e565b92915050565b600073ffffffffffffffffffffffffffffffffffffffff82169050919050565b6000620004938262000466565b9050919050565b620004a58162000486565b8114620004b157600080fd5b50565b600081519050620004c5816200049a565b92915050565b60008060008060008060c08789031215620004eb57620004ea620002b5565b5b600087015167ffffffffffffffff8111156200050c576200050b620002ba565b5b6200051a89828a016200040b565b96505060206200052d89828a016200044f565b95505060406200054089828a01620004b4565b94505060606200055389828a01620004b4565b93505060806200056689828a01620004b4565b92505060a06200057989828a01620004b4565b9150509295509295509295565b620005918162000486565b82525050565b6000602082019050620005ae600083018462000586565b92915050565b600081519050919050565b7f4e487b7100000000000000000000000000000000000000000000000000000000600052602260045260246000fd5b600060028204905060018216806200060757607f821691505b6020821081036200061d576200061c620005bf565b5b50919050565b60008190508160005260206000209050919050565b60006020601f8301049050919050565b600082821b905092915050565b600060088302620006877fffffffffffffffffffffffffffffffffffffffffffffffffffffffffffffffff8262000648565b62000693868362000648565b95508019841693508086168417925050509392505050565b6000819050919050565b6000819050919050565b6000620006e0620006da620006d484620006ab565b620006b5565b620006ab565b9050919050565b6000819050919050565b620006fc83620006bf565b620007146200070b82620006e7565b84845462000655565b825550505050565b600090565b6200072b6200071c565b62000738818484620006f1565b505050565b5b8181101562000760576200075460008262000721565b6001810190506200073e565b5050565b601f821115620007af57620007798162000623565b620007848462000638565b8101602085101562000794578190505b620007ac620007a38562000638565b8301826200073d565b50505b505050565b600082821c905092915050565b6000620007d460001984600802620007b4565b1980831691505092915050565b6000620007ef8383620007c1565b9150826002028217905092915050565b6200080a82620005b4565b67ffffffffffffffff811115620008265762000825620002da565b5b620008328254620005ee565b6200083f82828562000764565b600060209050601f83116001811462000877576000841562000862578287015190505b6200086e8582620007e1565b865550620008de565b601f198416620008878662000623565b60005b82811015620008b1578489015182556001820191506020850194506020810190506200088a565b86831015620008d15784890151620008cd601f891682620007c1565b8355505b6001600288020188555050505b505050505050565b7f4e487b7100000000000000000000000000000000000000000000000000000000600052602160045260246000fd5b60805160a05160c051612308620009ca60003960008181610458015281816106080152818161096601528181610a0201528181610df701528181610f6b015281816110a20152818161117701526114b301526000818161056a015281816107720152818161080e01528181610d5901528181610ecc015281816110040152818161121601528181611317015261142601526000818161047c015281816108af01528181610aa30152610c9b01526123086000f3fe608060405234801561001057600080fd5b50600436106101165760003560e01c8063715018a6116100a2578063a932492f11610071578063a932492f14610275578063ef430aa614610293578063f0d9bb20146102b1578063f2fde38b146102cf578063fe4b84df146102eb57610116565b8063715018a6146102135780637dc0d1d01461021d5780638da5cb5b1461023b5780639a6d3aaa1461025957610116565b806327793f87116100e957806327793f87146101915780633f6fa655146101af5780633fad9ae0146101cd57806345993c66146101eb5780634e71d92d1461020957610116565b80630bede3f81461011b57806311a9f10a1461013757806311eac85514610155578063158ef93e14610173575b600080fd5b61013560048036038101906101309190611982565b610307565b005b61013f610456565b60405161014c9190611a2e565b60405180910390f35b61015d61047a565b60405161016a9190611a6a565b60405180910390f35b61017b61049e565b6040516101889190611a94565b60405180910390f35b6101996104b1565b6040516101a69190611a94565b60405180910390f35b6101b76104c4565b6040516101c49190611a94565b60405180910390f35b6101d56104d7565b6040516101e29190611b3f565b60405180910390f35b6101f3610565565b6040516102009190611b7a565b60405180910390f35b61021161070a565b005b61021b610b54565b005b610225610b68565b6040516102329190611bb6565b60405180910390f35b610243610b8e565b6040516102509190611bb6565b60405180910390f35b610273600480360381019061026e9190611bfd565b610bb7565b005b61027d6112fc565b60405161028a9190611b7a565b60405180910390f35b61029b611302565b6040516102a89190611cb4565b60405180910390f35b6102b9611315565b6040516102c69190611a2e565b60405180910390f35b6102e960048036038101906102e49190611cfb565b611339565b005b61030560048036038101906103009190611d28565b6113bf565b005b600460009054906101000a900473ffffffffffffffffffffffffffffffffffffffff1673ffffffffffffffffffffffffffffffffffffffff163373ffffffffffffffffffffffffffffffffffffffff1614610397576040517f08c379a000000000000000000000000000000000000000000000000000000000815260040161038e90611da1565b60405180910390fd5b600460149054906101000a900460ff16156103e7576040517f08c379a00000000000000000000000000000000000000000000000000000000081526004016103de90611e0d565b60405180910390fd5b6001600460146101000a81548160ff02191690831515021790555080600460156101000a81548160ff0219169083151502179055507fdabf623a6bec72ad159e2d9533e7149ec45bfc657e39f49fb6a9509852dc77dc8160405161044b9190611a94565b60405180910390a150565b7f000000000000000000000000000000000000000000000000000000000000000081565b7f000000000000000000000000000000000000000000000000000000000000000081565b600260009054906101000a900460ff1681565b600460159054906101000a900460ff1681565b600460149054906101000a900460ff1681565b600380546104e490611e5c565b80601f016020809104026020016040519081016040528092919081815260200182805461051090611e5c565b801561055d5780601f106105325761010080835404028352916020019161055d565b820191906000526020600020905b81548152906001019060200180831161054057829003601f168201915b505050505081565b6000807f000000000000000000000000000000000000000000000000000000000000000073ffffffffffffffffffffffffffffffffffffffff166370a08231306040518263ffffffff1660e01b81526004016105c19190611bb6565b602060405180830381865afa1580156105de573d6000803e3d6000fd5b505050506040513d601f19601f820116820180604052508101906106029190611ea2565b905060007f000000000000000000000000000000000000000000000000000000000000000073ffffffffffffffffffffffffffffffffffffffff166370a08231306040518263ffffffff1660e01b815260040161065f9190611bb6565b602060405180830381865afa15801561067c573d6000803e3d6000fd5b505050506040513d601f19601f820116820180604052508101906106a09190611ea2565b905060008214806106b15750600081145b156106c9576802b5e3af16b188000092505050610707565b61070281836106d89190611efe565b6106f468056bc75e2d63100000846115af90919063ffffffff16565b6115c390919063ffffffff16565b925050505b90565b600460149054906101000a900460ff16610759576040517f08c379a000000000000000000000000000000000000000000000000000000000815260040161075090611f7e565b60405180910390fd5b600460159054906101000a900460ff16156109625760007f000000000000000000000000000000000000000000000000000000000000000073ffffffffffffffffffffffffffffffffffffffff166370a08231336040518263ffffffff1660e01b81526004016107c99190611bb6565b602060405180830381865afa1580156107e6573d6000803e3d6000fd5b505050506040513d601f19601f8201168201806040525081019061080a9190611ea2565b90507f000000000000000000000000000000000000000000000000000000000000000073ffffffffffffffffffffffffffffffffffffffff166323b872dd3330846040518463ffffffff1660e01b815260040161086993929190611f9e565b6020604051808303816000875af1158015610888573d6000803e3d6000fd5b505050506040513d601f19601f820116820180604052508101906108ac9190611fea565b507f000000000000000000000000000000000000000000000000000000000000000073ffffffffffffffffffffffffffffffffffffffff1663a9059cbb3364e8d4a51000846108fb9190612046565b6040518363ffffffff1660e01b8152600401610918929190612077565b6020604051808303816000875af1158015610937573d6000803e3d6000fd5b505050506040513d601f19601f8201168201806040525081019061095b9190611fea565b5050610b52565b60007f000000000000000000000000000000000000000000000000000000000000000073ffffffffffffffffffffffffffffffffffffffff166370a08231336040518263ffffffff1660e01b81526004016109bd9190611bb6565b602060405180830381865afa1580156109da573d6000803e3d6000fd5b505050506040513d601f19601f820116820180604052508101906109fe9190611ea2565b90507f000000000000000000000000000000000000000000000000000000000000000073ffffffffffffffffffffffffffffffffffffffff166323b872dd3330846040518463ffffffff1660e01b8152600401610a5d93929190611f9e565b6020604051808303816000875af1158015610a7c573d6000803e3d6000fd5b505050506040513d601f19601f82011682018060405250810190610aa09190611fea565b507f000000000000000000000000000000000000000000000000000000000000000073ffffffffffffffffffffffffffffffffffffffff1663a9059cbb3364e8d4a5100084610aef9190612046565b6040518363ffffffff1660e01b8152600401610b0c929190612077565b6020604051808303816000875af1158015610b2b573d6000803e3d6000fd5b505050506040513d601f19601f82011682018060405250810190610b4f9190611fea565b50505b565b610b5c6115e0565b610b666000611667565b565b600460009054906101000a900473ffffffffffffffffffffffffffffffffffffffff1681565b60008060009054906101000a900473ffffffffffffffffffffffffffffffffffffffff16905090565b600460149054906101000a900460ff1615610c07576040517f08c379a0000000000000000000000000000000000000000000000000000000008152600401610bfe90611e0d565b60405180910390fd5b600260009054906101000a900460ff16610c56576040517f08c379a0000000000000000000000000000000000000000000000000000000008152600401610c4d906120ec565b60405180910390fd5b60008211610c99576040517f08c379a0000000000000000000000000000000000000000000000000000000008152600401610c9090612158565b60405180910390fd5b7f000000000000000000000000000000000000000000000000000000000000000073ffffffffffffffffffffffffffffffffffffffff166323b872dd3330856040518463ffffffff1660e01b8152600401610cf693929190611f9e565b6020604051808303816000875af1158015610d15573d6000803e3d6000fd5b505050506040513d601f19601f82011682018060405250810190610d399190611fea565b50600064e8d4a5100083610d4d9190612178565b905081156110005760007f000000000000000000000000000000000000000000000000000000000000000073ffffffffffffffffffffffffffffffffffffffff166370a08231306040518263ffffffff1660e01b8152600401610db09190611bb6565b602060405180830381865afa158015610dcd573d6000803e3d6000fd5b505050506040513d601f19601f82011682018060405250810190610df19190611ea2565b905060007f000000000000000000000000000000000000000000000000000000000000000073ffffffffffffffffffffffffffffffffffffffff166370a08231306040518263ffffffff1660e01b8152600401610e4e9190611bb6565b602060405180830381865afa158015610e6b573d6000803e3d6000fd5b505050506040513d601f19601f82011682018060405250810190610e8f9190611ea2565b905060008382610e9f9190611efe565b90506000610eb8826001546115c390919063ffffffff16565b905060008185610ec891906121ba565b90507f000000000000000000000000000000000000000000000000000000000000000073ffffffffffffffffffffffffffffffffffffffff1663a9059cbb33836040518363ffffffff1660e01b8152600401610f25929190612077565b6020604051808303816000875af1158015610f44573d6000803e3d6000fd5b505050506040513d601f19601f82011682018060405250810190610f689190611fea565b507f000000000000000000000000000000000000000000000000000000000000000073ffffffffffffffffffffffffffffffffffffffff166340c10f1930886040518363ffffffff1660e01b8152600401610fc4929190612077565b600060405180830381600087803b158015610fde57600080fd5b505af1158015610ff2573d6000803e3d6000fd5b5050505050505050506112a7565b60007f000000000000000000000000000000000000000000000000000000000000000073ffffffffffffffffffffffffffffffffffffffff166370a08231306040518263ffffffff1660e01b815260040161105b9190611bb6565b602060405180830381865afa158015611078573d6000803e3d6000fd5b505050506040513d601f19601f8201168201806040525081019061109c9190611ea2565b905060007f000000000000000000000000000000000000000000000000000000000000000073ffffffffffffffffffffffffffffffffffffffff166370a08231306040518263ffffffff1660e01b81526004016110f99190611bb6565b602060405180830381865afa158015611116573d6000803e3d6000fd5b505050506040513d601f19601f8201168201806040525081019061113a9190611ea2565b90506000838361114a9190611efe565b90506000611163826001546115c390919063ffffffff16565b90506000818461117391906121ba565b90507f000000000000000000000000000000000000000000000000000000000000000073ffffffffffffffffffffffffffffffffffffffff1663a9059cbb33836040518363ffffffff1660e01b81526004016111d0929190612077565b6020604051808303816000875af11580156111ef573d6000803e3d6000fd5b505050506040513d601f19601f820116820180604052508101906112139190611fea565b507f000000000000000000000000000000000000000000000000000000000000000073ffffffffffffffffffffffffffffffffffffffff166340c10f1930886040518363ffffffff1660e01b815260040161126f929190612077565b600060405180830381600087803b15801561128957600080fd5b505af115801561129d573d6000803e3d6000fd5b5050505050505050505b3373ffffffffffffffffffffffffffffffffffffffff167f9617cace81b9513da7c8288c2084a08ed3c21daafff9d3681243f1fb741a450384846040516112ef9291906121ee565b60405180910390a2505050565b60015481565b600260019054906101000a900460ff1681565b7f000000000000000000000000000000000000000000000000000000000000000081565b6113416115e0565b600073ffffffffffffffffffffffffffffffffffffffff168173ffffffffffffffffffffffffffffffffffffffff16036113b35760006040517f1e4fbdf70000000000000000000000000000000000000000000000000000000081526004016113aa9190611bb6565b60405180910390fd5b6113bc81611667565b50565b600260009054906101000a900460ff161561140f576040517f08c379a000000000000000000000000000000000000000000000000000000000815260040161140690612289565b60405180910390fd5b600064e8d4a51000826114229190612178565b90507f000000000000000000000000000000000000000000000000000000000000000073ffffffffffffffffffffffffffffffffffffffff166340c10f1930836040518363ffffffff1660e01b815260040161147f929190612077565b600060405180830381600087803b15801561149957600080fd5b505af11580156114ad573d6000803e3d6000fd5b505050507f000000000000000000000000000000000000000000000000000000000000000073ffffffffffffffffffffffffffffffffffffffff166340c10f1930836040518363ffffffff1660e01b815260040161150c929190612077565b600060405180830381600087803b15801561152657600080fd5b505af115801561153a573d6000803e3d6000fd5b5050505061155181826115af90919063ffffffff16565b6001819055506001600260006101000a81548160ff0219169083151502179055507fbe9b076dc5b65990cca9dd9d7366682482e7817a6f6bc7f4faf4dc32af497f326001546040516115a39190611b7a565b60405180910390a15050565b60006115bb838361172b565b905092915050565b60006115d883670de0b6b3a764000084611828565b905092915050565b6115e861193d565b73ffffffffffffffffffffffffffffffffffffffff16611606610b8e565b73ffffffffffffffffffffffffffffffffffffffff16146116655761162961193d565b6040517f118cdaa700000000000000000000000000000000000000000000000000000000815260040161165c9190611bb6565b60405180910390fd5b565b60008060009054906101000a900473ffffffffffffffffffffffffffffffffffffffff169050816000806101000a81548173ffffffffffffffffffffffffffffffffffffffff021916908373ffffffffffffffffffffffffffffffffffffffff1602179055508173ffffffffffffffffffffffffffffffffffffffff168173ffffffffffffffffffffffffffffffffffffffff167f8be0079c531659141344cd1fd0a4f28419497f9722a3daafe3b4186f6b6457e060405160405180910390a35050565b60008060008019848609848602925082811083820303915050670de0b6b3a7640000811061179057806040517fd31b34020000000000000000000000000000000000000000000000000000000081526004016117879190611b7a565b60405180910390fd5b600080670de0b6b3a764000086880991506706f05b59d3b1ffff82119050600083036117dc5780670de0b6b3a764000085816117cf576117ce612017565b5b0401945050505050611822565b807faccb18165bd6fe31ae1cf318dc5b51eee0e1ba569b88cd74c1773b91fac1066960016204000080600003040186851186030262040000858803041702019450505050505b92915050565b60008060008019858709858702925082811083820303915050600081036118635783828161185957611858612017565b5b0492505050611936565b8381106118a95780846040517f773cc18c0000000000000000000000000000000000000000000000000000000081526004016118a09291906122a9565b60405180910390fd5b60008486880990508281118203915080830392506000600186190186169050808604955080840493506001818260000304019050808302841793506000600287600302189050808702600203810290508087026002038102905080870260020381029050808702600203810290508087026002038102905080870260020381029050808502955050505050505b9392505050565b600033905090565b600080fd5b60008115159050919050565b61195f8161194a565b811461196a57600080fd5b50565b60008135905061197c81611956565b92915050565b60006020828403121561199857611997611945565b5b60006119a68482850161196d565b91505092915050565b600073ffffffffffffffffffffffffffffffffffffffff82169050919050565b6000819050919050565b60006119f46119ef6119ea846119af565b6119cf565b6119af565b9050919050565b6000611a06826119d9565b9050919050565b6000611a18826119fb565b9050919050565b611a2881611a0d565b82525050565b6000602082019050611a436000830184611a1f565b92915050565b6000611a54826119fb565b9050919050565b611a6481611a49565b82525050565b6000602082019050611a7f6000830184611a5b565b92915050565b611a8e8161194a565b82525050565b6000602082019050611aa96000830184611a85565b92915050565b600081519050919050565b600082825260208201905092915050565b60005b83811015611ae9578082015181840152602081019050611ace565b60008484015250505050565b6000601f19601f8301169050919050565b6000611b1182611aaf565b611b1b8185611aba565b9350611b2b818560208601611acb565b611b3481611af5565b840191505092915050565b60006020820190508181036000830152611b598184611b06565b905092915050565b6000819050919050565b611b7481611b61565b82525050565b6000602082019050611b8f6000830184611b6b565b92915050565b6000611ba0826119af565b9050919050565b611bb081611b95565b82525050565b6000602082019050611bcb6000830184611ba7565b92915050565b611bda81611b61565b8114611be557600080fd5b50565b600081359050611bf781611bd1565b92915050565b60008060408385031215611c1457611c13611945565b5b6000611c2285828601611be8565b9250506020611c338582860161196d565b9150509250929050565b7f4e487b7100000000000000000000000000000000000000000000000000000000600052602160045260246000fd5b60048110611c7d57611c7c611c3d565b5b50565b6000819050611c8e82611c6c565b919050565b6000611c9e82611c80565b9050919050565b611cae81611c93565b82525050565b6000602082019050611cc96000830184611ca5565b92915050565b611cd881611b95565b8114611ce357600080fd5b50565b600081359050611cf581611ccf565b92915050565b600060208284031215611d1157611d10611945565b5b6000611d1f84828501611ce6565b91505092915050565b600060208284031215611d3e57611d3d611945565b5b6000611d4c84828501611be8565b91505092915050565b7f4f6e6c79206f7261636c652063616e207265736f6c7665000000000000000000600082015250565b6000611d8b601783611aba565b9150611d9682611d55565b602082019050919050565b60006020820190508181036000830152611dba81611d7e565b9050919050565b7f4d61726b657420697320616c7265616479207265736f6c766564000000000000600082015250565b6000611df7601a83611aba565b9150611e0282611dc1565b602082019050919050565b60006020820190508181036000830152611e2681611dea565b9050919050565b7f4e487b7100000000000000000000000000000000000000000000000000000000600052602260045260246000fd5b60006002820490506001821680611e7457607f821691505b602082108103611e8757611e86611e2d565b5b50919050565b600081519050611e9c81611bd1565b92915050565b600060208284031215611eb857611eb7611945565b5b6000611ec684828501611e8d565b91505092915050565b7f4e487b7100000000000000000000000000000000000000000000000000000000600052601160045260246000fd5b6000611f0982611b61565b9150611f1483611b61565b9250828201905080821115611f2c57611f2b611ecf565b5b92915050565b7f4d61726b6574206973206e6f74207265736f6c76656420796574000000000000600082015250565b6000611f68601a83611aba565b9150611f7382611f32565b602082019050919050565b60006020820190508181036000830152611f9781611f5b565b9050919050565b6000606082019050611fb36000830186611ba7565b611fc06020830185611ba7565b611fcd6040830184611b6b565b949350505050565b600081519050611fe481611956565b92915050565b60006020828403121561200057611fff611945565b5b600061200e84828501611fd5565b91505092915050565b7f4e487b7100000000000000000000000000000000000000000000000000000000600052601260045260246000fd5b600061205182611b61565b915061205c83611b61565b92508261206c5761206b612017565b5b828204905092915050565b600060408201905061208c6000830185611ba7565b6120996020830184611b6b565b9392505050565b7f4d61726b6574206e6f7420696e697469616c697a656400000000000000000000600082015250565b60006120d6601683611aba565b91506120e1826120a0565b602082019050919050565b60006020820190508181036000830152612105816120c9565b9050919050565b7f416d6f756e74206d7573742062652067726561746572207468616e2030000000600082015250565b6000612142601d83611aba565b915061214d8261210c565b602082019050919050565b6000602082019050818103600083015261217181612135565b9050919050565b600061218382611b61565b915061218e83611b61565b925082820261219c81611b61565b915082820484148315176121b3576121b2611ecf565b5b5092915050565b60006121c582611b61565b91506121d083611b61565b92508282039050818111156121e8576121e7611ecf565b5b92915050565b60006040820190506122036000830185611b6b565b6122106020830184611a85565b9392505050565b7f4d61726b65742068617320616c7265616479206265656e20696e697469616c6960008201527f7a65640000000000000000000000000000000000000000000000000000000000602082015250565b6000612273602383611aba565b915061227e82612217565b604082019050919050565b600060208201905081810360008301526122a281612266565b9050919050565b60006040820190506122be6000830185611b6b565b6122cb6020830184611b6b565b939250505056fea2646970667358221220e6d2976bda6579faf12d11fd558fe9869d42b2892740ffbdc5b53f55e7dc283264736f6c63430008180033a2646970667358221220a2e84e8aa1636998e96d9fb3550b2b325bf2306fa1fa05ead5127895e801baf364736f6c63430008180033",
  "devdoc": {
    "kind": "dev",
    "methods": {},
    "version": 1
  },
  "userdoc": {
    "kind": "user",
    "methods": {},
    "version": 1
  },
  "storageLayout": {
    "storage": [
      {
        "astId": 1487,
        "contract": "contracts/PredictionMarketFactory.sol:PredictionMarketFactory",
        "label": "predictionMarkets",
        "offset": 0,
        "slot": "0",
        "type": "t_array(t_contract(PredictionMarket)1479)dyn_storage"
      }
    ],
    "types": {
      "t_array(t_contract(PredictionMarket)1479)dyn_storage": {
        "base": "t_contract(PredictionMarket)1479",
        "encoding": "dynamic_array",
        "label": "contract PredictionMarket[]",
        "numberOfBytes": "32"
      },
      "t_contract(PredictionMarket)1479": {
        "encoding": "inplace",
        "label": "contract PredictionMarket",
        "numberOfBytes": "20"
      }
    }
  }
}