{
  "address": "0x9b61E083185b94DB262AA74F2A02dD527bE36186",
  "abi": [
    {
      "anonymous": false,
      "inputs": [
        {
          "indexed": true,
          "internalType": "address",
          "name": "marketAddress",
          "type": "address"
        },
        {
          "indexed": false,
          "internalType": "string",
          "name": "question",
          "type": "string"
        },
        {
          "indexed": false,
          "internalType": "enum PredictionMarketFixedModel.Category",
          "name": "category",
          "type": "uint8"
        }
      ],
      "name": "MarketCreatedFixedModel",
      "type": "event"
    },
    {
      "inputs": [
        {
          "internalType": "string",
          "name": "_question",
          "type": "string"
        },
        {
          "internalType": "enum PredictionMarketFixedModel.Category",
          "name": "_category",
          "type": "uint8"
        },
        {
          "internalType": "address",
          "name": "_oracle",
          "type": "address"
        },
        {
          "internalType": "address",
          "name": "_usdcToken",
          "type": "address"
        }
      ],
      "name": "createMarket",
      "outputs": [
        {
          "internalType": "address",
          "name": "",
          "type": "address"
        }
      ],
      "stateMutability": "nonpayable",
      "type": "function"
    },
    {
      "inputs": [],
      "name": "getAllFixedModelMarkets",
      "outputs": [
        {
          "internalType": "contract PredictionMarketFixedModel[]",
          "name": "",
          "type": "address[]"
        }
      ],
      "stateMutability": "view",
      "type": "function"
    },
    {
      "inputs": [
        {
          "internalType": "uint256",
          "name": "",
          "type": "uint256"
        }
      ],
      "name": "predictionMarketsFixedModel",
      "outputs": [
        {
          "internalType": "contract PredictionMarketFixedModel",
          "name": "",
          "type": "address"
        }
      ],
      "stateMutability": "view",
      "type": "function"
    }
  ],
  "transactionHash": "0x98a2996795a763add3fb318838783d75253095cfd8e3a1ad31c0fbd50b62df56",
  "args": [],
  "numDeployments": 1,
  "solcInputHash": "439739b4a6653e98173887edc1f7801d",
  "bytecode": "0x608060405234801561001057600080fd5b50612941806100206000396000f3fe60806040523480156200001157600080fd5b5060043610620000465760003560e01c806326195fe4146200004b578063435ffaca146200006d57806377080f8014620000a3575b600080fd5b62000055620000d9565b60405162000064919062000473565b60405180910390f35b6200008b60048036038101906200008591906200067a565b62000169565b6040516200009a91906200071c565b60405180910390f35b620000c16004803603810190620000bb919062000774565b620002dd565b604051620000d09190620007b7565b60405180910390f35b606060008054806020026020016040519081016040528092919081815260200182805480156200015f57602002820191906000526020600020905b8160009054906101000a900473ffffffffffffffffffffffffffffffffffffffff1673ffffffffffffffffffffffffffffffffffffffff168152602001906001019080831162000114575b5050505050905090565b600080858585856040516200017e906200031d565b6200018d9493929190620008dd565b604051809103906000f080158015620001aa573d6000803e3d6000fd5b5090508073ffffffffffffffffffffffffffffffffffffffff1663f2fde38b336040518263ffffffff1660e01b8152600401620001e891906200071c565b600060405180830381600087803b1580156200020357600080fd5b505af115801562000218573d6000803e3d6000fd5b505050506000819080600181540180825580915050600190039060005260206000200160009091909190916101000a81548173ffffffffffffffffffffffffffffffffffffffff021916908373ffffffffffffffffffffffffffffffffffffffff1602179055508073ffffffffffffffffffffffffffffffffffffffff167f35a57d46322a84619fdb0ec3057e18b424f0c3d67271cb84e587662c4e6cab4e8787604051620002c992919062000931565b60405180910390a280915050949350505050565b60008181548110620002ee57600080fd5b906000526020600020016000915054906101000a900473ffffffffffffffffffffffffffffffffffffffff1681565b611fa6806200096683390190565b600081519050919050565b600082825260208201905092915050565b6000819050602082019050919050565b600073ffffffffffffffffffffffffffffffffffffffff82169050919050565b6000819050919050565b6000620003a26200039c620003968462000357565b62000377565b62000357565b9050919050565b6000620003b68262000381565b9050919050565b6000620003ca82620003a9565b9050919050565b620003dc81620003bd565b82525050565b6000620003f08383620003d1565b60208301905092915050565b6000602082019050919050565b600062000416826200032b565b62000422818562000336565b93506200042f8362000347565b8060005b83811015620004665781516200044a8882620003e2565b97506200045783620003fc565b92505060018101905062000433565b5085935050505092915050565b600060208201905081810360008301526200048f818462000409565b905092915050565b6000604051905090565b600080fd5b600080fd5b600080fd5b600080fd5b6000601f19601f8301169050919050565b7f4e487b7100000000000000000000000000000000000000000000000000000000600052604160045260246000fd5b6200050082620004b5565b810181811067ffffffffffffffff82111715620005225762000521620004c6565b5b80604052505050565b60006200053762000497565b9050620005458282620004f5565b919050565b600067ffffffffffffffff821115620005685762000567620004c6565b5b6200057382620004b5565b9050602081019050919050565b82818337600083830152505050565b6000620005a6620005a0846200054a565b6200052b565b905082815260208101848484011115620005c557620005c4620004b0565b5b620005d284828562000580565b509392505050565b600082601f830112620005f257620005f1620004ab565b5b8135620006048482602086016200058f565b91505092915050565b600481106200061b57600080fd5b50565b6000813590506200062f816200060d565b92915050565b6000620006428262000357565b9050919050565b620006548162000635565b81146200066057600080fd5b50565b600081359050620006748162000649565b92915050565b60008060008060808587031215620006975762000696620004a1565b5b600085013567ffffffffffffffff811115620006b857620006b7620004a6565b5b620006c687828801620005da565b9450506020620006d9878288016200061e565b9350506040620006ec8782880162000663565b9250506060620006ff8782880162000663565b91505092959194509250565b620007168162000635565b82525050565b60006020820190506200073360008301846200070b565b92915050565b6000819050919050565b6200074e8162000739565b81146200075a57600080fd5b50565b6000813590506200076e8162000743565b92915050565b6000602082840312156200078d576200078c620004a1565b5b60006200079d848285016200075d565b91505092915050565b620007b181620003bd565b82525050565b6000602082019050620007ce6000830184620007a6565b92915050565b600081519050919050565b600082825260208201905092915050565b60005b8381101562000810578082015181840152602081019050620007f3565b60008484015250505050565b60006200082982620007d4565b620008358185620007df565b935062000847818560208601620007f0565b6200085281620004b5565b840191505092915050565b7f4e487b7100000000000000000000000000000000000000000000000000000000600052602160045260246000fd5b60048110620008a0576200089f6200085d565b5b50565b6000819050620008b3826200088c565b919050565b6000620008c582620008a3565b9050919050565b620008d781620008b8565b82525050565b60006080820190508181036000830152620008f981876200081c565b90506200090a6020830186620008cc565b6200091960408301856200070b565b6200092860608301846200070b565b95945050505050565b600060408201905081810360008301526200094d81856200081c565b90506200095e6020830184620008cc565b939250505056fe60a06040523480156200001157600080fd5b5060405162001fa638038062001fa6833981810160405281019062000037919062000461565b33600073ffffffffffffffffffffffffffffffffffffffff168173ffffffffffffffffffffffffffffffffffffffff1603620000ad5760006040517f1e4fbdf7000000000000000000000000000000000000000000000000000000008152600401620000a4919062000503565b60405180910390fd5b620000be816200017d60201b60201c565b508360069081620000d091906200076b565b5082600560006101000a81548160ff02191690836003811115620000f957620000f862000852565b5b021790555081600760006101000a81548173ffffffffffffffffffffffffffffffffffffffff021916908373ffffffffffffffffffffffffffffffffffffffff1602179055508073ffffffffffffffffffffffffffffffffffffffff1660808173ffffffffffffffffffffffffffffffffffffffff16815250505050505062000881565b60008060009054906101000a900473ffffffffffffffffffffffffffffffffffffffff169050816000806101000a81548173ffffffffffffffffffffffffffffffffffffffff021916908373ffffffffffffffffffffffffffffffffffffffff1602179055508173ffffffffffffffffffffffffffffffffffffffff168173ffffffffffffffffffffffffffffffffffffffff167f8be0079c531659141344cd1fd0a4f28419497f9722a3daafe3b4186f6b6457e060405160405180910390a35050565b6000604051905090565b600080fd5b600080fd5b600080fd5b600080fd5b6000601f19601f8301169050919050565b7f4e487b7100000000000000000000000000000000000000000000000000000000600052604160045260246000fd5b620002aa826200025f565b810181811067ffffffffffffffff82111715620002cc57620002cb62000270565b5b80604052505050565b6000620002e162000241565b9050620002ef82826200029f565b919050565b600067ffffffffffffffff82111562000312576200031162000270565b5b6200031d826200025f565b9050602081019050919050565b60005b838110156200034a5780820151818401526020810190506200032d565b60008484015250505050565b60006200036d6200036784620002f4565b620002d5565b9050828152602081018484840111156200038c576200038b6200025a565b5b620003998482856200032a565b509392505050565b600082601f830112620003b957620003b862000255565b5b8151620003cb84826020860162000356565b91505092915050565b60048110620003e257600080fd5b50565b600081519050620003f681620003d4565b92915050565b600073ffffffffffffffffffffffffffffffffffffffff82169050919050565b60006200042982620003fc565b9050919050565b6200043b816200041c565b81146200044757600080fd5b50565b6000815190506200045b8162000430565b92915050565b600080600080608085870312156200047e576200047d6200024b565b5b600085015167ffffffffffffffff8111156200049f576200049e62000250565b5b620004ad87828801620003a1565b9450506020620004c087828801620003e5565b9350506040620004d3878288016200044a565b9250506060620004e6878288016200044a565b91505092959194509250565b620004fd816200041c565b82525050565b60006020820190506200051a6000830184620004f2565b92915050565b600081519050919050565b7f4e487b7100000000000000000000000000000000000000000000000000000000600052602260045260246000fd5b600060028204905060018216806200057357607f821691505b6020821081036200058957620005886200052b565b5b50919050565b60008190508160005260206000209050919050565b60006020601f8301049050919050565b600082821b905092915050565b600060088302620005f37fffffffffffffffffffffffffffffffffffffffffffffffffffffffffffffffff82620005b4565b620005ff8683620005b4565b95508019841693508086168417925050509392505050565b6000819050919050565b6000819050919050565b60006200064c62000646620006408462000617565b62000621565b62000617565b9050919050565b6000819050919050565b62000668836200062b565b62000680620006778262000653565b848454620005c1565b825550505050565b600090565b6200069762000688565b620006a48184846200065d565b505050565b5b81811015620006cc57620006c06000826200068d565b600181019050620006aa565b5050565b601f8211156200071b57620006e5816200058f565b620006f084620005a4565b8101602085101562000700578190505b620007186200070f85620005a4565b830182620006a9565b50505b505050565b600082821c905092915050565b6000620007406000198460080262000720565b1980831691505092915050565b60006200075b83836200072d565b9150826002028217905092915050565b620007768262000520565b67ffffffffffffffff81111562000792576200079162000270565b5b6200079e82546200055a565b620007ab828285620006d0565b600060209050601f831160018114620007e35760008415620007ce578287015190505b620007da85826200074d565b8655506200084a565b601f198416620007f3866200058f565b60005b828110156200081d57848901518255600182019150602085019450602081019050620007f6565b868310156200083d578489015162000839601f8916826200072d565b8355505b6001600288020188555050505b505050505050565b7f4e487b7100000000000000000000000000000000000000000000000000000000600052602160045260246000fd5b6080516116fb620008ab6000396000818161042c0152818161087d01526109dd01526116fb6000f3fe608060405234801561001057600080fd5b50600436106101005760003560e01c8063523afb0d116100975780637dc0d1d0116100665780637dc0d1d0146102655780638da5cb5b14610283578063ef430aa6146102a1578063f2fde38b146102bf57610100565b8063523afb0d146101f1578063566aa60b1461020d578063715018a61461022b5780637620ba301461023557610100565b80633f6fa655116100d35780633f6fa6551461017b5780633fad9ae0146101995780634e71d92d146101b757806350b3b0c5146101c157610100565b80630bede3f81461010557806311eac8551461012157806327793f871461013f5780632a5968991461015d575b600080fd5b61011f600480360381019061011a9190610e5e565b6102db565b005b61012961042a565b6040516101369190610f0a565b60405180910390f35b61014761044e565b6040516101549190610f34565b60405180910390f35b610165610461565b6040516101729190610f68565b60405180910390f35b610183610467565b6040516101909190610f34565b60405180910390f35b6101a161047a565b6040516101ae9190611013565b60405180910390f35b6101bf610508565b005b6101db60048036038101906101d69190611073565b61096b565b6040516101e89190610f68565b60405180910390f35b61020b60048036038101906102069190610e5e565b610983565b005b610215610bb4565b6040516102229190610f68565b60405180910390f35b610233610bba565b005b61024f600480360381019061024a9190611073565b610bce565b60405161025c9190610f68565b60405180910390f35b61026d610be6565b60405161027a91906110af565b60405180910390f35b61028b610c0c565b60405161029891906110af565b60405180910390f35b6102a9610c35565b6040516102b69190611141565b60405180910390f35b6102d960048036038101906102d49190611073565b610c48565b005b600760009054906101000a900473ffffffffffffffffffffffffffffffffffffffff1673ffffffffffffffffffffffffffffffffffffffff163373ffffffffffffffffffffffffffffffffffffffff161461036b576040517f08c379a0000000000000000000000000000000000000000000000000000000008152600401610362906111a8565b60405180910390fd5b600760149054906101000a900460ff16156103bb576040517f08c379a00000000000000000000000000000000000000000000000000000000081526004016103b290611214565b60405180910390fd5b6001600760146101000a81548160ff02191690831515021790555080600760156101000a81548160ff0219169083151502179055507fdabf623a6bec72ad159e2d9533e7149ec45bfc657e39f49fb6a9509852dc77dc8160405161041f9190610f34565b60405180910390a150565b7f000000000000000000000000000000000000000000000000000000000000000081565b600760159054906101000a900460ff1681565b60015481565b600760149054906101000a900460ff1681565b6006805461048790611263565b80601f01602080910402602001604051908101604052809291908181526020018280546104b390611263565b80156105005780601f106104d557610100808354040283529160200191610500565b820191906000526020600020905b8154815290600101906020018083116104e357829003601f168201915b505050505081565b600760149054906101000a900460ff16610557576040517f08c379a000000000000000000000000000000000000000000000000000000000815260040161054e906112e0565b60405180910390fd5b6000600760159054906101000a900460ff16156106d5576000600360003373ffffffffffffffffffffffffffffffffffffffff1673ffffffffffffffffffffffffffffffffffffffff168152602001908152602001600020549050600081116105f5576040517f08c379a00000000000000000000000000000000000000000000000000000000081526004016105ec9061134c565b60405180910390fd5b60006001541161063a576040517f08c379a0000000000000000000000000000000000000000000000000000000008152600401610631906113b8565b60405180910390fd5b6000620f424060025461064d9190611407565b9050600060015483836106609190611407565b61066a9190611478565b9050620f42408361067b9190611407565b8161068691906114a9565b93506000600360003373ffffffffffffffffffffffffffffffffffffffff1673ffffffffffffffffffffffffffffffffffffffff16815260200190815260200160002081905550505050610838565b6000600460003373ffffffffffffffffffffffffffffffffffffffff1673ffffffffffffffffffffffffffffffffffffffff1681526020019081526020016000205490506000811161075c576040517f08c379a00000000000000000000000000000000000000000000000000000000081526004016107539061134c565b60405180910390fd5b6000600254116107a1576040517f08c379a000000000000000000000000000000000000000000000000000000000815260040161079890611529565b60405180910390fd5b6000620f42406001546107b49190611407565b9050600060025483836107c79190611407565b6107d19190611478565b9050620f4240836107e29190611407565b816107ed91906114a9565b93506000600460003373ffffffffffffffffffffffffffffffffffffffff1673ffffffffffffffffffffffffffffffffffffffff168152602001908152602001600020819055505050505b6000811161087b576040517f08c379a0000000000000000000000000000000000000000000000000000000008152600401610872906115bb565b60405180910390fd5b7f000000000000000000000000000000000000000000000000000000000000000073ffffffffffffffffffffffffffffffffffffffff1663a9059cbb33836040518363ffffffff1660e01b81526004016108d69291906115db565b6020604051808303816000875af11580156108f5573d6000803e3d6000fd5b505050506040513d601f19601f820116820180604052508101906109199190611619565b503373ffffffffffffffffffffffffffffffffffffffff167fd8138f8a3f377c5259ca548e70e4c2de94f129f5a11036a15b69513cba2b426a826040516109609190610f68565b60405180910390a250565b60036020528060005260406000206000915090505481565b600760149054906101000a900460ff16156109d3576040517f08c379a00000000000000000000000000000000000000000000000000000000081526004016109ca90611214565b60405180910390fd5b6000620f424090507f000000000000000000000000000000000000000000000000000000000000000073ffffffffffffffffffffffffffffffffffffffff166323b872dd3330846040518463ffffffff1660e01b8152600401610a3893929190611646565b6020604051808303816000875af1158015610a57573d6000803e3d6000fd5b505050506040513d601f19601f82011682018060405250810190610a7b9190611619565b508115610af457600360003373ffffffffffffffffffffffffffffffffffffffff1673ffffffffffffffffffffffffffffffffffffffff1681526020019081526020016000206000815480929190610ad29061167d565b919050555060016000815480929190610aea9061167d565b9190505550610b62565b600460003373ffffffffffffffffffffffffffffffffffffffff1673ffffffffffffffffffffffffffffffffffffffff1681526020019081526020016000206000815480929190610b449061167d565b919050555060026000815480929190610b5c9061167d565b91905055505b3373ffffffffffffffffffffffffffffffffffffffff167f984fde4f828718a36dabb7c6dc8c32fe1e5918af35e9bd2b1395505e328354e883604051610ba89190610f34565b60405180910390a25050565b60025481565b610bc2610cce565b610bcc6000610d55565b565b60046020528060005260406000206000915090505481565b600760009054906101000a900473ffffffffffffffffffffffffffffffffffffffff1681565b60008060009054906101000a900473ffffffffffffffffffffffffffffffffffffffff16905090565b600560009054906101000a900460ff1681565b610c50610cce565b600073ffffffffffffffffffffffffffffffffffffffff168173ffffffffffffffffffffffffffffffffffffffff1603610cc25760006040517f1e4fbdf7000000000000000000000000000000000000000000000000000000008152600401610cb991906110af565b60405180910390fd5b610ccb81610d55565b50565b610cd6610e19565b73ffffffffffffffffffffffffffffffffffffffff16610cf4610c0c565b73ffffffffffffffffffffffffffffffffffffffff1614610d5357610d17610e19565b6040517f118cdaa7000000000000000000000000000000000000000000000000000000008152600401610d4a91906110af565b60405180910390fd5b565b60008060009054906101000a900473ffffffffffffffffffffffffffffffffffffffff169050816000806101000a81548173ffffffffffffffffffffffffffffffffffffffff021916908373ffffffffffffffffffffffffffffffffffffffff1602179055508173ffffffffffffffffffffffffffffffffffffffff168173ffffffffffffffffffffffffffffffffffffffff167f8be0079c531659141344cd1fd0a4f28419497f9722a3daafe3b4186f6b6457e060405160405180910390a35050565b600033905090565b600080fd5b60008115159050919050565b610e3b81610e26565b8114610e4657600080fd5b50565b600081359050610e5881610e32565b92915050565b600060208284031215610e7457610e73610e21565b5b6000610e8284828501610e49565b91505092915050565b600073ffffffffffffffffffffffffffffffffffffffff82169050919050565b6000819050919050565b6000610ed0610ecb610ec684610e8b565b610eab565b610e8b565b9050919050565b6000610ee282610eb5565b9050919050565b6000610ef482610ed7565b9050919050565b610f0481610ee9565b82525050565b6000602082019050610f1f6000830184610efb565b92915050565b610f2e81610e26565b82525050565b6000602082019050610f496000830184610f25565b92915050565b6000819050919050565b610f6281610f4f565b82525050565b6000602082019050610f7d6000830184610f59565b92915050565b600081519050919050565b600082825260208201905092915050565b60005b83811015610fbd578082015181840152602081019050610fa2565b60008484015250505050565b6000601f19601f8301169050919050565b6000610fe582610f83565b610fef8185610f8e565b9350610fff818560208601610f9f565b61100881610fc9565b840191505092915050565b6000602082019050818103600083015261102d8184610fda565b905092915050565b600061104082610e8b565b9050919050565b61105081611035565b811461105b57600080fd5b50565b60008135905061106d81611047565b92915050565b60006020828403121561108957611088610e21565b5b60006110978482850161105e565b91505092915050565b6110a981611035565b82525050565b60006020820190506110c460008301846110a0565b92915050565b7f4e487b7100000000000000000000000000000000000000000000000000000000600052602160045260246000fd5b6004811061110a576111096110ca565b5b50565b600081905061111b826110f9565b919050565b600061112b8261110d565b9050919050565b61113b81611120565b82525050565b60006020820190506111566000830184611132565b92915050565b7f4f6e6c79206f7261636c652063616e207265736f6c7665000000000000000000600082015250565b6000611192601783610f8e565b915061119d8261115c565b602082019050919050565b600060208201905081810360008301526111c181611185565b9050919050565b7f4d61726b657420697320616c7265616479207265736f6c766564000000000000600082015250565b60006111fe601a83610f8e565b9150611209826111c8565b602082019050919050565b6000602082019050818103600083015261122d816111f1565b9050919050565b7f4e487b7100000000000000000000000000000000000000000000000000000000600052602260045260246000fd5b6000600282049050600182168061127b57607f821691505b60208210810361128e5761128d611234565b5b50919050565b7f4d61726b6574206973206e6f74207265736f6c76656420796574000000000000600082015250565b60006112ca601a83610f8e565b91506112d582611294565b602082019050919050565b600060208201905081810360008301526112f9816112bd565b9050919050565b7f4e6f2077696e6e696e677320746f20636c61696d000000000000000000000000600082015250565b6000611336601483610f8e565b915061134182611300565b602082019050919050565b6000602082019050818103600083015261136581611329565b9050919050565b7f4e6f2079657320626574732077657265206d6164650000000000000000000000600082015250565b60006113a2601583610f8e565b91506113ad8261136c565b602082019050919050565b600060208201905081810360008301526113d181611395565b9050919050565b7f4e487b7100000000000000000000000000000000000000000000000000000000600052601160045260246000fd5b600061141282610f4f565b915061141d83610f4f565b925082820261142b81610f4f565b91508282048414831517611442576114416113d8565b5b5092915050565b7f4e487b7100000000000000000000000000000000000000000000000000000000600052601260045260246000fd5b600061148382610f4f565b915061148e83610f4f565b92508261149e5761149d611449565b5b828204905092915050565b60006114b482610f4f565b91506114bf83610f4f565b92508282019050808211156114d7576114d66113d8565b5b92915050565b7f4e6f206e6f20626574732077657265206d616465000000000000000000000000600082015250565b6000611513601483610f8e565b915061151e826114dd565b602082019050919050565b6000602082019050818103600083015261154281611506565b9050919050565b7f57696e6e696e6773206d7573742062652067726561746572207468616e207a6560008201527f726f000000000000000000000000000000000000000000000000000000000000602082015250565b60006115a5602283610f8e565b91506115b082611549565b604082019050919050565b600060208201905081810360008301526115d481611598565b9050919050565b60006040820190506115f060008301856110a0565b6115fd6020830184610f59565b9392505050565b60008151905061161381610e32565b92915050565b60006020828403121561162f5761162e610e21565b5b600061163d84828501611604565b91505092915050565b600060608201905061165b60008301866110a0565b61166860208301856110a0565b6116756040830184610f59565b949350505050565b600061168882610f4f565b91507fffffffffffffffffffffffffffffffffffffffffffffffffffffffffffffffff82036116ba576116b96113d8565b5b60018201905091905056fea2646970667358221220bd8a9ccaf9ed057c7b7d8b9e02eeee23f7af126de7de74417e7faf2504d6feb164736f6c63430008180033a2646970667358221220b8e5866e9418211c65d0677ff8367547c610295fe662d2cc36182cf2f757c44464736f6c63430008180033",
  "devdoc": {
    "kind": "dev",
    "methods": {},
    "version": 1
  },
  "userdoc": {
    "kind": "user",
    "methods": {},
    "version": 1
  },
  "storageLayout": {
    "storage": [
      {
        "astId": 1692,
        "contract": "contracts/PredictionMarketFactoryFixedModel.sol:PredictionMarketFactoryFixedModel",
        "label": "predictionMarketsFixedModel",
        "offset": 0,
        "slot": "0",
        "type": "t_array(t_contract(PredictionMarketFixedModel)2287)dyn_storage"
      }
    ],
    "types": {
      "t_array(t_contract(PredictionMarketFixedModel)2287)dyn_storage": {
        "base": "t_contract(PredictionMarketFixedModel)2287",
        "encoding": "dynamic_array",
        "label": "contract PredictionMarketFixedModel[]",
        "numberOfBytes": "32"
      },
      "t_contract(PredictionMarketFixedModel)2287": {
        "encoding": "inplace",
        "label": "contract PredictionMarketFixedModel",
        "numberOfBytes": "20"
      }
    }
  }
}